{"abi":[{"type":"constructor","inputs":[{"name":"_usdc","type":"address","internalType":"address"},{"name":"_riskManager","type":"address","internalType":"address"},{"name":"_positionManager","type":"address","internalType":"address"},{"name":"_stabilityFund","type":"address","internalType":"address"},{"name":"_backendSigner","type":"address","internalType":"address"}],"stateMutability":"nonpayable"},{"type":"function","name":"BACKEND_SIGNER_ROLE","inputs":[],"outputs":[{"name":"","type":"bytes32","internalType":"bytes32"}],"stateMutability":"view"},{"type":"function","name":"DEFAULT_ADMIN_ROLE","inputs":[],"outputs":[{"name":"","type":"bytes32","internalType":"bytes32"}],"stateMutability":"view"},{"type":"function","name":"PRICE_VALIDITY_WINDOW","inputs":[],"outputs":[{"name":"","type":"uint256","internalType":"uint256"}],"stateMutability":"view"},{"type":"function","name":"closeMarketPosition","inputs":[{"name":"positionId","type":"uint256","internalType":"uint256"},{"name":"signedPrice","type":"tuple","internalType":"struct MarketExecutor.SignedPrice","components":[{"name":"symbol","type":"string","internalType":"string"},{"name":"price","type":"uint256","internalType":"uint256"},{"name":"timestamp","type":"uint256","internalType":"uint256"},{"name":"signature","type":"bytes","internalType":"bytes"}]}],"outputs":[],"stateMutability":"nonpayable"},{"type":"function","name":"closeMarketPositionMeta","inputs":[{"name":"trader","type":"address","internalType":"address"},{"name":"positionId","type":"uint256","internalType":"uint256"},{"name":"signedPrice","type":"tuple","internalType":"struct MarketExecutor.SignedPrice","components":[{"name":"symbol","type":"string","internalType":"string"},{"name":"price","type":"uint256","internalType":"uint256"},{"name":"timestamp","type":"uint256","internalType":"uint256"},{"name":"signature","type":"bytes","internalType":"bytes"}]},{"name":"userSignature","type":"bytes","internalType":"bytes"}],"outputs":[],"stateMutability":"nonpayable"},{"type":"function","name":"getRoleAdmin","inputs":[{"name":"role","type":"bytes32","internalType":"bytes32"}],"outputs":[{"name":"","type":"bytes32","internalType":"bytes32"}],"stateMutability":"view"},{"type":"function","name":"grantRole","inputs":[{"name":"role","type":"bytes32","internalType":"bytes32"},{"name":"account","type":"address","internalType":"address"}],"outputs":[],"stateMutability":"nonpayable"},{"type":"function","name":"hasRole","inputs":[{"name":"role","type":"bytes32","internalType":"bytes32"},{"name":"account","type":"address","internalType":"address"}],"outputs":[{"name":"","type":"bool","internalType":"bool"}],"stateMutability":"view"},{"type":"function","name":"liquidatePosition","inputs":[{"name":"positionId","type":"uint256","internalType":"uint256"},{"name":"signedPrice","type":"tuple","internalType":"struct MarketExecutor.SignedPrice","components":[{"name":"symbol","type":"string","internalType":"string"},{"name":"price","type":"uint256","internalType":"uint256"},{"name":"timestamp","type":"uint256","internalType":"uint256"},{"name":"signature","type":"bytes","internalType":"bytes"}]}],"outputs":[],"stateMutability":"nonpayable"},{"type":"function","name":"liquidationFeeBps","inputs":[],"outputs":[{"name":"","type":"uint256","internalType":"uint256"}],"stateMutability":"view"},{"type":"function","name":"metaNonces","inputs":[{"name":"","type":"address","internalType":"address"}],"outputs":[{"name":"","type":"uint256","internalType":"uint256"}],"stateMutability":"view"},{"type":"function","name":"nonces","inputs":[{"name":"","type":"address","internalType":"address"}],"outputs":[{"name":"","type":"uint256","internalType":"uint256"}],"stateMutability":"view"},{"type":"function","name":"openMarketPosition","inputs":[{"name":"symbol","type":"string","internalType":"string"},{"name":"isLong","type":"bool","internalType":"bool"},{"name":"collateral","type":"uint256","internalType":"uint256"},{"name":"leverage","type":"uint256","internalType":"uint256"},{"name":"signedPrice","type":"tuple","internalType":"struct MarketExecutor.SignedPrice","components":[{"name":"symbol","type":"string","internalType":"string"},{"name":"price","type":"uint256","internalType":"uint256"},{"name":"timestamp","type":"uint256","internalType":"uint256"},{"name":"signature","type":"bytes","internalType":"bytes"}]}],"outputs":[{"name":"positionId","type":"uint256","internalType":"uint256"}],"stateMutability":"nonpayable"},{"type":"function","name":"openMarketPositionMeta","inputs":[{"name":"trader","type":"address","internalType":"address"},{"name":"symbol","type":"string","internalType":"string"},{"name":"isLong","type":"bool","internalType":"bool"},{"name":"collateral","type":"uint256","internalType":"uint256"},{"name":"leverage","type":"uint256","internalType":"uint256"},{"name":"signedPrice","type":"tuple","internalType":"struct MarketExecutor.SignedPrice","components":[{"name":"symbol","type":"string","internalType":"string"},{"name":"price","type":"uint256","internalType":"uint256"},{"name":"timestamp","type":"uint256","internalType":"uint256"},{"name":"signature","type":"bytes","internalType":"bytes"}]},{"name":"userSignature","type":"bytes","internalType":"bytes"}],"outputs":[{"name":"positionId","type":"uint256","internalType":"uint256"}],"stateMutability":"nonpayable"},{"type":"function","name":"positionManager","inputs":[],"outputs":[{"name":"","type":"address","internalType":"contract IPositionManager"}],"stateMutability":"view"},{"type":"function","name":"renounceRole","inputs":[{"name":"role","type":"bytes32","internalType":"bytes32"},{"name":"callerConfirmation","type":"address","internalType":"address"}],"outputs":[],"stateMutability":"nonpayable"},{"type":"function","name":"revokeRole","inputs":[{"name":"role","type":"bytes32","internalType":"bytes32"},{"name":"account","type":"address","internalType":"address"}],"outputs":[],"stateMutability":"nonpayable"},{"type":"function","name":"riskManager","inputs":[],"outputs":[{"name":"","type":"address","internalType":"contract IRiskManager"}],"stateMutability":"view"},{"type":"function","name":"stabilityFund","inputs":[],"outputs":[{"name":"","type":"address","internalType":"contract IStabilityFund"}],"stateMutability":"view"},{"type":"function","name":"supportsInterface","inputs":[{"name":"interfaceId","type":"bytes4","internalType":"bytes4"}],"outputs":[{"name":"","type":"bool","internalType":"bool"}],"stateMutability":"view"},{"type":"function","name":"tradingFeeBps","inputs":[],"outputs":[{"name":"","type":"uint256","internalType":"uint256"}],"stateMutability":"view"},{"type":"function","name":"updateContracts","inputs":[{"name":"_riskManager","type":"address","internalType":"address"},{"name":"_positionManager","type":"address","internalType":"address"},{"name":"_stabilityFund","type":"address","internalType":"address"}],"outputs":[],"stateMutability":"nonpayable"},{"type":"function","name":"updateFees","inputs":[{"name":"_tradingFeeBps","type":"uint256","internalType":"uint256"},{"name":"_liquidationFeeBps","type":"uint256","internalType":"uint256"}],"outputs":[],"stateMutability":"nonpayable"},{"type":"function","name":"usdc","inputs":[],"outputs":[{"name":"","type":"address","internalType":"contract IERC20"}],"stateMutability":"view"},{"type":"event","name":"BadDebtCovered","inputs":[{"name":"trader","type":"address","indexed":true,"internalType":"address"},{"name":"excessLoss","type":"uint256","indexed":false,"internalType":"uint256"},{"name":"totalLoss","type":"uint256","indexed":false,"internalType":"uint256"}],"anonymous":false},{"type":"event","name":"FeesUpdated","inputs":[{"name":"tradingFeeBps","type":"uint256","indexed":false,"internalType":"uint256"},{"name":"liquidationFeeBps","type":"uint256","indexed":false,"internalType":"uint256"}],"anonymous":false},{"type":"event","name":"MarketOrderExecuted","inputs":[{"name":"positionId","type":"uint256","indexed":true,"internalType":"uint256"},{"name":"trader","type":"address","indexed":true,"internalType":"address"},{"name":"symbol","type":"string","indexed":false,"internalType":"string"},{"name":"isLong","type":"bool","indexed":false,"internalType":"bool"},{"name":"collateral","type":"uint256","indexed":false,"internalType":"uint256"},{"name":"leverage","type":"uint256","indexed":false,"internalType":"uint256"},{"name":"price","type":"uint256","indexed":false,"internalType":"uint256"}],"anonymous":false},{"type":"event","name":"MetaTransactionExecuted","inputs":[{"name":"userAddress","type":"address","indexed":true,"internalType":"address"},{"name":"relayerAddress","type":"address","indexed":true,"internalType":"address"},{"name":"nonce","type":"uint256","indexed":false,"internalType":"uint256"}],"anonymous":false},{"type":"event","name":"PositionClosedMarket","inputs":[{"name":"positionId","type":"uint256","indexed":true,"internalType":"uint256"},{"name":"trader","type":"address","indexed":true,"internalType":"address"},{"name":"exitPrice","type":"uint256","indexed":false,"internalType":"uint256"},{"name":"pnl","type":"int256","indexed":false,"internalType":"int256"},{"name":"fee","type":"uint256","indexed":false,"internalType":"uint256"}],"anonymous":false},{"type":"event","name":"PositionLiquidatedMarket","inputs":[{"name":"positionId","type":"uint256","indexed":true,"internalType":"uint256"},{"name":"liquidator","type":"address","indexed":true,"internalType":"address"},{"name":"liquidationPrice","type":"uint256","indexed":false,"internalType":"uint256"},{"name":"liquidationFee","type":"uint256","indexed":false,"internalType":"uint256"}],"anonymous":false},{"type":"event","name":"RoleAdminChanged","inputs":[{"name":"role","type":"bytes32","indexed":true,"internalType":"bytes32"},{"name":"previousAdminRole","type":"bytes32","indexed":true,"internalType":"bytes32"},{"name":"newAdminRole","type":"bytes32","indexed":true,"internalType":"bytes32"}],"anonymous":false},{"type":"event","name":"RoleGranted","inputs":[{"name":"role","type":"bytes32","indexed":true,"internalType":"bytes32"},{"name":"account","type":"address","indexed":true,"internalType":"address"},{"name":"sender","type":"address","indexed":true,"internalType":"address"}],"anonymous":false},{"type":"event","name":"RoleRevoked","inputs":[{"name":"role","type":"bytes32","indexed":true,"internalType":"bytes32"},{"name":"account","type":"address","indexed":true,"internalType":"address"},{"name":"sender","type":"address","indexed":true,"internalType":"address"}],"anonymous":false},{"type":"event","name":"TotalLiquidation","inputs":[{"name":"trader","type":"address","indexed":true,"internalType":"address"},{"name":"collateral","type":"uint256","indexed":false,"internalType":"uint256"}],"anonymous":false},{"type":"error","name":"AccessControlBadConfirmation","inputs":[]},{"type":"error","name":"AccessControlUnauthorizedAccount","inputs":[{"name":"account","type":"address","internalType":"address"},{"name":"neededRole","type":"bytes32","internalType":"bytes32"}]},{"type":"error","name":"ECDSAInvalidSignature","inputs":[]},{"type":"error","name":"ECDSAInvalidSignatureLength","inputs":[{"name":"length","type":"uint256","internalType":"uint256"}]},{"type":"error","name":"ECDSAInvalidSignatureS","inputs":[{"name":"s","type":"bytes32","internalType":"bytes32"}]},{"type":"error","name":"ReentrancyGuardReentrantCall","inputs":[]}],"bytecode":{"object":"0x60a034620002b657601f6200261438819003918201601f1916830191906001600160401b03831184841017620002bb578160a09285926040958652833981010312620002b6576200005082620002d1565b9160209262000061848301620002d1565b916200006f848201620002d1565b906200008c60806200008460608401620002d1565b9201620002d1565b60018055600580556032600655936001600160a01b039384169081156200027257841692831562000222578416918215620001ce5784169384156200017c5785161562000138576200011295965060805260018060a01b03199182600254161760025581600354161760035560045416176004556200010b33620002e6565b5062000366565b50516121eb908162000409823960805181818161033201528181610fce01526112200152f35b855162461bcd60e51b815260048101889052601e60248201527f4d61726b65744578656375746f723a20496e76616c6964207369676e657200006044820152606490fd5b865162461bcd60e51b815260048101899052602560248201527f4d61726b65744578656375746f723a20496e76616c69642053746162696c69746044820152641e519d5b9960da1b6064820152608490fd5b865162461bcd60e51b815260048101899052602760248201527f4d61726b65744578656375746f723a20496e76616c696420506f736974696f6e60448201526626b0b730b3b2b960c91b6064820152608490fd5b865162461bcd60e51b815260048101899052602360248201527f4d61726b65744578656375746f723a20496e76616c6964205269736b4d616e6160448201526233b2b960e91b6064820152608490fd5b865162461bcd60e51b815260048101899052601c60248201527f4d61726b65744578656375746f723a20496e76616c69642055534443000000006044820152606490fd5b600080fd5b634e487b7160e01b600052604160045260246000fd5b51906001600160a01b0382168203620002b657565b6001600160a01b031660008181527fad3228b676f7d3cd4284a5443f17f1962b36e491b30a40b2405849e597ba5fb5602052604081205490919060ff166200036257818052816020526040822081835260205260408220600160ff198254161790553391600080516020620025f48339815191528180a4600190565b5090565b6001600160a01b031660008181527f92731b430a99d226833495b5b5a9eee62a15e2a9df1b0a790bc8afce8b03780660205260408120549091907f9c6721068556a3c372f1c2ef739a54f29e29d287d6ef1e7b26a65200f38e6fb09060ff166200040357808352826020526040832082845260205260408320600160ff19825416179055600080516020620025f4833981519152339380a4600190565b50509056fe608080604052600436101561001357600080fd5b600090813560e01c90816301ffc9a7146115dd5750806315d61bb314611300578063248a9ca3146112d45780632f2ff15d1461129757806336568abe1461124f5780633e413bee1461120a57806347842663146111e1578063615de9ec14610d9b5780636db7943714610c885780636dca4d4414610be2578063744b14b314610a15578063791b98bc146109ec5780637ecebe00146109b35780637f3e73ae1461059a57806391d148541461054f578063924cca9a14610531578063a217fddf14610515578063a60265fe146104ec578063a83cc6ce1461021b578063b54496b0146101fe578063d547741f146101bd578063d97ef2b314610182578063e031a824146101645763ef7994651461012957600080fd5b34610161576020366003190112610161576020906040906001600160a01b0361015061167e565b168152600883522054604051908152f35b80fd5b50346101615780600319360112610161576020600654604051908152f35b503461016157806003193601126101615760206040517f9c6721068556a3c372f1c2ef739a54f29e29d287d6ef1e7b26a65200f38e6fb08152f35b5034610161576040366003190112610161576101fa6004356101dd611668565b90808452836020526101f5600160408620015461171a565b6117be565b5080f35b5034610161578060031936011261016157602060405161012c8152f35b5034610161576003199060a0368301126101615767ffffffffffffffff6004358181116104e857610250903690600401611694565b919060243594851515860361043a5760443592608435116104e457608090608435360301126104e057610281611a10565b61028f608435600401611e34565b600254604051631a14f6d760e21b81526001600160a01b03916020908290841681806102c58c8a6064358d8c3360048801611897565b03915afa801561049a5786906104a5575b6102e091506118d0565b6102f86102ef6064358561192c565b6005549061192c565b50600480546040516323b872dd60e01b8152339281019290925282166001600160a01b0316602482015260448101849052602081606481897f000000000000000000000000000000000000000000000000000000000000000087165af190811561049a5790859392918791610453575b5061037290611955565b6003541660206024608435013593849286898b6103ab6040519788968795869463c286db6960e01b8652606435928d33600489016119a1565b03925af19586156104475795610409575b50916020956103fa7f04d4564352ad42eb68600a0a31f11557d4411f4f78733b5ca69550c76efb50c0938795604051948594339960643593876119df565b0390a360018055604051908152f35b919450916020823d60201161043f575b8161042660209383611847565b8101031261043a57905193909160206103bc565b600080fd5b3d9150610419565b604051903d90823e3d90fd5b91929350506020813d602011610492575b8161047160209383611847565b8101031261048e5790610372610488869493611869565b90610368565b8580fd5b3d9150610464565b6040513d88823e3d90fd5b506020813d6020116104d8575b816104bf60209383611847565b8101031261048e576104d36102e091611869565b6102d6565b3d91506104b2565b8380fd5b8480fd5b8280fd5b50346101615780600319360112610161576004546040516001600160a01b039091168152602090f35b5034610161578060031936011261016157602090604051908152f35b50346101615780600319360112610161576020600554604051908152f35b503461016157604036600319011261016157604061056b611668565b91600435815280602052209060018060a01b0316600052602052602060ff604060002054166040519015158152f35b5034610161576003196080368201126109af576105b561167e565b9067ffffffffffffffff604435116104e857608090604435360301126109af5760643567ffffffffffffffff81116104e8576105f5903690600401611694565b610600929192611a10565b60018060a01b0360035416906040519263eb02c30160e01b845260243560048501528584602481865afa91821561049a57869087938880968192610976575b602495969798506040519586809263eb02c30160e01b8252823560048301525afa93841561096b57899461093d575b5060018060a01b03851689526008602052604089205490604051916001600160601b03198760601b166020840152602435603484015260548301523060601b6074830152606882528160a081011067ffffffffffffffff60a084011117610927576107846107c29561074f61073c61073361078b978f9e8f90603c61072d928b60a060ff9d01604052602081519101207f19457468657265756d205369676e6564204d6573736167653a0a3332000000008252601c5220923691611a4f565b90611af0565b90929192611bb0565b6001600160a01b038a8116911614611a86565b6001600160a01b0388168b52600860205260408b20805461076f90611ae1565b90556001600160a01b03888116911614611d08565b1615611d5f565b602081519101206107bd604435600401916107b06107a98480611db5565b3691611a4f565b6020815191012014611de8565b611e34565b60018060a01b03600354169260206024604435013594604460405180988193632d6ce61d60e01b835260243560048401528960248401525af194851561049a5786956108f0575b50620186a061081e61082a926005549061192c565b04928386339285612068565b6001600160a01b03811685526008602052604085205460001981019081116108dc576040519081527fe7f66e17fba5f2afc1760028e92b1c8352e7e6d7d9fc02841fbcd0597d78e73e92919033906001600160a01b038316907f03a8e3abe17734f998ec7aacc8db66f8ab07e8096a306018130db6d465f0da7490602090a3604080519485526020850195909552938301526001600160a01b03909216916024359180606081015b0390a36001805580f35b634e487b7160e01b86526011600452602486fd5b9094506020813d60201161091f575b8161090c60209383611847565b8101031261043a575193620186a0610809565b3d91506108ff565b634e487b7160e01b600052604160045260246000fd5b61095a9194503d808b833e6109528183611847565b810190611c35565b50505050505050509050923861066e565b6040513d8b823e3d90fd5b9650925050946024929350610994903d8084833e6109528183611847565b9d98505050509893509491905093969791889796955061063f565b5080fd5b5034610161576020366003190112610161576020906040906001600160a01b036109db61167e565b168152600783522054604051908152f35b50346101615780600319360112610161576003546040516001600160a01b039091168152602090f35b503461016157610a2436611632565b610a2c611a10565b60035460405163eb02c30160e01b8152600481018490526001600160a01b03939184168582602481845afa93841561049a578692878092819382938399610ba3575b50610a8960ff88999a9b610aaf99169b6107848d3314611d08565b80519160209788938480940120610aa36107a98480611db5565b84815191012014611de8565b610ab881611e34565b013594604460405180948193632d6ce61d60e01b83528c60048401528960248401525af194851561096b578995610b4f575b5050610b327fe7f66e17fba5f2afc1760028e92b1c8352e7e6d7d9fc02841fbcd0597d78e73e956108d293620186a0610b2788956005549061192c565b049384913393612068565b604051938493846040919493926060820195825260208201520152565b9080969550813d8311610b9c575b610b678183611847565b8101031261043a5793519293610b327fe7f66e17fba5f2afc1760028e92b1c8352e7e6d7d9fc02841fbcd0597d78e73e610aea565b503d610b5d565b905060ff979850610aaf9650610a899450610bc99193503d8084833e6109528183611847565b9f9e50969c509299919896509394509250610a6e915050565b503461016157606036600319011261016157610bfc61167e565b610c04611668565b6044356001600160a01b038181169390929184900361043a578290610c276116c2565b1680610c6f575b501680610c56575b5080610c40575080f35b6001600160601b0360a01b600454161760045580f35b6001600160601b0360a01b600354161760035538610c36565b6001600160601b0360a01b600254161760025538610c2e565b503461016157604036600319011261016157600435602435610ca86116c2565b60648211610d4a576101f48111610cf457816040917f5c6323bf1c2d7aaea2c091a4751c1c87af7f2864650c336507a77d0557af37a1936005558060065582519182526020820152a180f35b60405162461bcd60e51b815260206004820152602860248201527f4d61726b65744578656375746f723a204c69717569646174696f6e20666565206044820152670e8dede40d0d2ced60c31b6064820152608490fd5b60405162461bcd60e51b8152602060048201526024808201527f4d61726b65744578656375746f723a2054726164696e672066656520746f6f206044820152630d0d2ced60e31b6064820152608490fd5b5034610161576003199060e03683011261016157610db761167e565b67ffffffffffffffff92906024358481116104e057610dda903690600401611694565b94909260443515156044350361043a578160a435116104e45760809060a435360301126104e05760c4359081116104e057610ee761073361072d610e25610efa943690600401611694565b9190610e2f611a10565b60018060a01b038716895260086020526040892054604051906001600160601b03198960601b1660208301528b8a6034840137604435151560f81b60348d8401015260643560358d8401015260843560558d8401015260758c830101523060601b60958c83010152610eae60a9828d8101036089810184520182611847565b602081519101207f19457468657265756d205369676e6564204d6573736167653a0a3332000000008a52601c52603c8920923691611a4f565b6001600160a01b03838116911614611a86565b6001600160a01b03811683526008602052604083208054610f1a90611ae1565b9055610f2a60a435600401611e34565b600254604051631a14f6d760e21b81529060209082906001600160a01b03168180610f636044356064356084358d8c8c60048801611897565b03915afa801561119b5784906111a6575b610f7e91506118d0565b610f8c60843560643561192c565b50600480546040516323b872dd60e01b81526001600160a01b0384811693820193909352908216602482015260648035604483015290916020918391829088907f0000000000000000000000000000000000000000000000000000000000000000165af1801561119b578490611160575b6110079150611955565b60035460405163c286db6960e01b8152939060209085906001600160a01b031681848161104960a435602401356084356064356044358f8e8e600489016119a1565b03925af193841561115357819461111f575b506001600160a01b03821681526008602052604081205460001981019190821161110b575060405190815260209484927f04d4564352ad42eb68600a0a31f11557d4411f4f78733b5ca69550c76efb50c09233906001600160a01b038316907f03a8e3abe17734f998ec7aacc8db66f8ab07e8096a306018130db6d465f0da74908a90a36103fa60405192839260018060a01b031696602460a435013591608435916064359160443591876119df565b634e487b7160e01b81526011600452602490fd5b9093506020813d60201161114b575b8161113b60209383611847565b8101031261043a5751923861105b565b3d915061112e565b50604051903d90823e3d90fd5b506020813d602011611193575b8161117a60209383611847565b810103126104e05761118e61100791611869565b610ffd565b3d915061116d565b6040513d86823e3d90fd5b506020813d6020116111d9575b816111c060209383611847565b810103126104e0576111d4610f7e91611869565b610f74565b3d91506111b3565b50346101615780600319360112610161576002546040516001600160a01b039091168152602090f35b50346101615780600319360112610161576040517f00000000000000000000000000000000000000000000000000000000000000006001600160a01b03168152602090f35b503461016157604036600319011261016157611269611668565b336001600160a01b03821603611285576101fa906004356117be565b60405163334bd91960e11b8152600490fd5b5034610161576040366003190112610161576101fa6004356112b7611668565b90808452836020526112cf600160408620015461171a565b611740565b503461016157602036600319011261016157600160406020926004358152808452200154604051908152f35b50346101615761130f36611632565b90611318611a10565b60035460405163eb02c30160e01b8152600481018390526001600160a01b0391821693908581602481885afa94851561049a5786958796889389928a918b916115a9575b5060ff61136a911615611d5f565b60c4888351976113946020998a809701206113886107a98480611db5565b87815191012014611de8565b61139d81611e34565b848a600254169101359b8c94604051978896879563623ca9c160e01b8752600487015260248601528a604486015260648501526084840152151560a48301525afa90811561159e578891611565575b5015611502578087913b156109af5781906044604051809481936369e2725360e11b83528a60048401528b60248401525af180156114f7576114e0575b5061271061143b87926006549061192c565b049260045416803b156109af5781809160a46040518094819363e9d5047960e01b83523360048401528160248401528960448401528160648401528160848401525af180156114d5576114c1575b50506040519384528301527f06d053832f13b099b2e2c0600590246fbf1283c642ac43c8b948cdb11193e2d860403393a36001805580f35b6114ca90611833565b6104e4578438611489565b6040513d84823e3d90fd5b61143b966114f061271092611833565b9650611429565b6040513d89823e3d90fd5b60405162461bcd60e51b815260048101849052603560248201527f4d61726b65744578656375746f723a20506f736974696f6e206e6f7420656c6960448201527433b4b13632903337b9103634b8bab4b230ba34b7b760591b6064820152608490fd5b90508381813d8311611597575b61157c8183611847565b810103126115935761158d90611869565b386113ec565b8780fd5b503d611572565b6040513d8a823e3d90fd5b9250505060ff975061136a93506115ca91503d808a833e6109528183611847565b959e949a5092975094955061135c915050565b9050346109af5760203660031901126109af5760043563ffffffff60e01b81168091036104e85760209250637965db0b60e01b8114908115611621575b5015158152f35b6301ffc9a760e01b1490503861161a565b9060031960408184011261043a57600435926024359167ffffffffffffffff831161043a578260809203011261043a5760040190565b602435906001600160a01b038216820361043a57565b600435906001600160a01b038216820361043a57565b9181601f8401121561043a5782359167ffffffffffffffff831161043a576020838186019501011161043a57565b3360009081527fad3228b676f7d3cd4284a5443f17f1962b36e491b30a40b2405849e597ba5fb5602052604081205460ff16156116fc5750565b6044906040519063e2517d3f60e01b82523360048301526024820152fd5b80600052600060205260406000203360005260205260ff60406000205416156116fc5750565b9060009180835282602052604083209160018060a01b03169182845260205260ff604084205416156000146117b957808352826020526040832082845260205260408320600160ff198254161790557f2f8788117e7eff1d82e926ec794901d17c78024a50270940304540a733656f0d339380a4600190565b505090565b9060009180835282602052604083209160018060a01b03169182845260205260ff6040842054166000146117b95780835282602052604083208284526020526040832060ff1981541690557ff6391f5c32d9c69d2a47ea670b442974b53935d1edc7fd64eb21e047a839171b339380a4600190565b67ffffffffffffffff811161092757604052565b90601f8019910116810190811067ffffffffffffffff82111761092757604052565b5190811515820361043a57565b908060209392818452848401376000828201840152601f01601f1916010190565b94916080949796936118be9260018060a01b0316875260a0602088015260a0870191611876565b95604085015260608401521515910152565b156118d757565b60405162461bcd60e51b815260206004820152602760248201527f4d61726b65744578656375746f723a2054726164652076616c69646174696f6e6044820152660819985a5b195960ca1b6064820152608490fd5b8181029291811591840414171561193f57565b634e487b7160e01b600052601160045260246000fd5b1561195c57565b60405162461bcd60e51b815260206004820152601f60248201527f4d61726b65744578656375746f723a205472616e73666572206661696c6564006044820152606490fd5b93979695929160a095926119c992600180891b0316865260c0602087015260c0860191611876565b9615156040840152606083015260808201520152565b9296959491608094916119fa9160a0865260a0860191611876565b9615156020840152604083015260608201520152565b600260015414611a21576002600155565b604051633ee5aeb560e01b8152600490fd5b67ffffffffffffffff811161092757601f01601f191660200190565b929192611a5b82611a33565b91611a696040519384611847565b82948184528183011161043a578281602093846000960137010152565b15611a8d57565b60405162461bcd60e51b815260206004820152602660248201527f4d61726b65744578656375746f723a20496e76616c69642075736572207369676044820152656e617475726560d01b6064820152608490fd5b600019811461193f5760010190565b8151919060418303611b2157611b1a92506020820151906060604084015193015160001a90611b2c565b9192909190565b505060009160029190565b91907f7fffffffffffffffffffffffffffffff5d576e7357a4501ddfe92f46681b20a08411611ba457926020929160ff608095604051948552168484015260408301526060820152600092839182805260015afa156104475780516001600160a01b03811615611b9b57918190565b50809160019190565b50505060009160039190565b6004811015611c1f5780611bc2575050565b60018103611bdc5760405163f645eedf60e01b8152600490fd5b60028103611bfd5760405163fce698f760e01b815260048101839052602490fd5b600314611c075750565b602490604051906335e2f38360e21b82526004820152fd5b634e487b7160e01b600052602160045260246000fd5b6101408183031261043a578051926020928383015160018060a01b038116810361043a5793604084015167ffffffffffffffff811161043a57840182601f8201121561043a57805190611c8782611a33565b93611c956040519586611847565b82855283838301011161043a5760005b828110611cf5575050906000918301015291611cc360608201611869565b9160808201519160a08101519160c08201519160e08101519161012061010083015192015160ff8116810361043a5790565b8181018401518582018501528301611ca5565b15611d0f57565b60405162461bcd60e51b815260206004820152602260248201527f4d61726b65744578656375746f723a204e6f7420706f736974696f6e206f776e60448201526132b960f11b6064820152608490fd5b15611d6657565b60405162461bcd60e51b815260206004820152602160248201527f4d61726b65744578656375746f723a20506f736974696f6e206e6f74206f70656044820152603760f91b6064820152608490fd5b903590601e198136030182121561043a570180359067ffffffffffffffff821161043a5760200191813603831361043a57565b15611def57565b60405162461bcd60e51b815260206004820152601f60248201527f4d61726b65744578656375746f723a2053796d626f6c206d69736d61746368006044820152606490fd5b6020908181013590811561201257604091828201359061012c820180831161193f574211611fce57428211611f785791611ee7610733859360ff95611ea560608a611e7f8880611db5565b9190958a5195838794848601998a378401928301528a8201520388810184520182611847565b519020926000937f19457468657265756d205369676e6564204d6573736167653a0a3332000000008552601c5261072d6107a9603c8620926060810190611db5565b7f9c6721068556a3c372f1c2ef739a54f29e29d287d6ef1e7b26a65200f38e6fb082528186528282206001600160a01b039091168252855220541615611f2b575050565b60849250519062461bcd60e51b82526004820152602160248201527f4d61726b65744578656375746f723a20496e76616c6964207369676e617475726044820152606560f81b6064820152fd5b835162461bcd60e51b815260048101869052602960248201527f4d61726b65744578656375746f723a2050726963652074696d657374616d7020604482015268696e2066757475726560b81b6064820152608490fd5b835162461bcd60e51b815260048101869052601d60248201527f4d61726b65744578656375746f723a20507269636520657870697265640000006044820152606490fd5b60405162461bcd60e51b815260048101849052601d60248201527f4d61726b65744578656375746f723a20496e76616c69642070726963650000006044820152606490fd5b600160ff1b811461193f5760000390565b909392916126ac80860290868204148615171561193f5761271061208c9104612057565b819080821261214d575b505080850193818512946000958688129080158216911516176108dc5784810390868612908083128216921390151617612139576004546001600160a01b039490851692833b1561213557928587969593879360a4966040519b8c998a9863e9d5047960e01b8a521660048901526024880152604487015260648601521660848401525af1908115610447575061212a5750565b61213390611833565b565b8680fd5b634e487b7160e01b85526011600452602485fd5b9150819061216361215d82612057565b92612057565b820391821161193f5761217590612057565b60405191825260208201527f96e1a301f5f1259604ae4dcb902641261339f6aa9f13ec16f5ab331206fe1cd5604060018060a01b03851692a2388061209656fea2646970667358221220b11d86c762b0f109e64fdad87f0daf1268346f4096cc93bc6ed6229352b48e8064736f6c634300081400332f8788117e7eff1d82e926ec794901d17c78024a50270940304540a733656f0d","linkReferences":{}},"methodIdentifiers":{"BACKEND_SIGNER_ROLE()":"d97ef2b3","DEFAULT_ADMIN_ROLE()":"a217fddf","PRICE_VALIDITY_WINDOW()":"b54496b0","closeMarketPosition(uint256,(string,uint256,uint256,bytes))":"744b14b3","closeMarketPositionMeta(address,uint256,(string,uint256,uint256,bytes),bytes)":"7f3e73ae","getRoleAdmin(bytes32)":"248a9ca3","grantRole(bytes32,address)":"2f2ff15d","hasRole(bytes32,address)":"91d14854","liquidatePosition(uint256,(string,uint256,uint256,bytes))":"15d61bb3","liquidationFeeBps()":"e031a824","metaNonces(address)":"ef799465","nonces(address)":"7ecebe00","openMarketPosition(string,bool,uint256,uint256,(string,uint256,uint256,bytes))":"a83cc6ce","openMarketPositionMeta(address,string,bool,uint256,uint256,(string,uint256,uint256,bytes),bytes)":"615de9ec","positionManager()":"791b98bc","renounceRole(bytes32,address)":"36568abe","revokeRole(bytes32,address)":"d547741f","riskManager()":"47842663","stabilityFund()":"a60265fe","supportsInterface(bytes4)":"01ffc9a7","tradingFeeBps()":"924cca9a","updateContracts(address,address,address)":"6dca4d44","updateFees(uint256,uint256)":"6db79437","usdc()":"3e413bee"},"id":44}