{"abi":[{"type":"constructor","inputs":[{"name":"_usdc","type":"address","internalType":"address"},{"name":"_stabilityFund","type":"address","internalType":"address"},{"name":"_backendSigner","type":"address","internalType":"address"},{"name":"_keeper","type":"address","internalType":"address"},{"name":"_settler","type":"address","internalType":"address"}],"stateMutability":"nonpayable"},{"type":"function","name":"BACKEND_SIGNER_ROLE","inputs":[],"outputs":[{"name":"","type":"bytes32","internalType":"bytes32"}],"stateMutability":"view"},{"type":"function","name":"BASE_MULTIPLIER","inputs":[],"outputs":[{"name":"","type":"uint256","internalType":"uint256"}],"stateMutability":"view"},{"type":"function","name":"DEFAULT_ADMIN_ROLE","inputs":[],"outputs":[{"name":"","type":"bytes32","internalType":"bytes32"}],"stateMutability":"view"},{"type":"function","name":"GRID_DURATION","inputs":[],"outputs":[{"name":"","type":"uint256","internalType":"uint256"}],"stateMutability":"view"},{"type":"function","name":"KEEPER_ROLE","inputs":[],"outputs":[{"name":"","type":"bytes32","internalType":"bytes32"}],"stateMutability":"view"},{"type":"function","name":"MIN_TIME_OFFSET","inputs":[],"outputs":[{"name":"","type":"uint256","internalType":"uint256"}],"stateMutability":"view"},{"type":"function","name":"PRICE_DECIMALS","inputs":[],"outputs":[{"name":"","type":"uint256","internalType":"uint256"}],"stateMutability":"view"},{"type":"function","name":"SETTLER_ROLE","inputs":[],"outputs":[{"name":"","type":"bytes32","internalType":"bytes32"}],"stateMutability":"view"},{"type":"function","name":"TRADING_FEE_BPS","inputs":[],"outputs":[{"name":"","type":"uint256","internalType":"uint256"}],"stateMutability":"view"},{"type":"function","name":"bets","inputs":[{"name":"","type":"uint256","internalType":"uint256"}],"outputs":[{"name":"betId","type":"uint256","internalType":"uint256"},{"name":"trader","type":"address","internalType":"address"},{"name":"symbol","type":"string","internalType":"string"},{"name":"betAmount","type":"uint256","internalType":"uint256"},{"name":"targetPrice","type":"uint256","internalType":"uint256"},{"name":"targetTime","type":"uint256","internalType":"uint256"},{"name":"entryPrice","type":"uint256","internalType":"uint256"},{"name":"entryTime","type":"uint256","internalType":"uint256"},{"name":"multiplier","type":"uint256","internalType":"uint256"},{"name":"status","type":"uint8","internalType":"enum OneTapProfit.BetStatus"},{"name":"settledAt","type":"uint256","internalType":"uint256"},{"name":"settlePrice","type":"uint256","internalType":"uint256"}],"stateMutability":"view"},{"type":"function","name":"calculateMultiplier","inputs":[{"name":"entryPrice","type":"uint256","internalType":"uint256"},{"name":"targetPrice","type":"uint256","internalType":"uint256"},{"name":"entryTime","type":"uint256","internalType":"uint256"},{"name":"targetTime","type":"uint256","internalType":"uint256"}],"outputs":[{"name":"","type":"uint256","internalType":"uint256"}],"stateMutability":"pure"},{"type":"function","name":"cancelBet","inputs":[{"name":"betId","type":"uint256","internalType":"uint256"}],"outputs":[],"stateMutability":"nonpayable"},{"type":"function","name":"getActiveBetsCount","inputs":[],"outputs":[{"name":"","type":"uint256","internalType":"uint256"}],"stateMutability":"view"},{"type":"function","name":"getBet","inputs":[{"name":"betId","type":"uint256","internalType":"uint256"}],"outputs":[{"name":"id","type":"uint256","internalType":"uint256"},{"name":"trader","type":"address","internalType":"address"},{"name":"symbol","type":"string","internalType":"string"},{"name":"betAmount","type":"uint256","internalType":"uint256"},{"name":"targetPrice","type":"uint256","internalType":"uint256"},{"name":"targetTime","type":"uint256","internalType":"uint256"},{"name":"entryPrice","type":"uint256","internalType":"uint256"},{"name":"entryTime","type":"uint256","internalType":"uint256"},{"name":"multiplier","type":"uint256","internalType":"uint256"},{"name":"status","type":"uint8","internalType":"enum OneTapProfit.BetStatus"},{"name":"settledAt","type":"uint256","internalType":"uint256"},{"name":"settlePrice","type":"uint256","internalType":"uint256"}],"stateMutability":"view"},{"type":"function","name":"getRoleAdmin","inputs":[{"name":"role","type":"bytes32","internalType":"bytes32"}],"outputs":[{"name":"","type":"bytes32","internalType":"bytes32"}],"stateMutability":"view"},{"type":"function","name":"getUserBets","inputs":[{"name":"user","type":"address","internalType":"address"}],"outputs":[{"name":"","type":"uint256[]","internalType":"uint256[]"}],"stateMutability":"view"},{"type":"function","name":"grantRole","inputs":[{"name":"role","type":"bytes32","internalType":"bytes32"},{"name":"account","type":"address","internalType":"address"}],"outputs":[],"stateMutability":"nonpayable"},{"type":"function","name":"hasRole","inputs":[{"name":"role","type":"bytes32","internalType":"bytes32"},{"name":"account","type":"address","internalType":"address"}],"outputs":[{"name":"","type":"bool","internalType":"bool"}],"stateMutability":"view"},{"type":"function","name":"metaNonces","inputs":[{"name":"","type":"address","internalType":"address"}],"outputs":[{"name":"","type":"uint256","internalType":"uint256"}],"stateMutability":"view"},{"type":"function","name":"nextBetId","inputs":[],"outputs":[{"name":"","type":"uint256","internalType":"uint256"}],"stateMutability":"view"},{"type":"function","name":"placeBetByKeeper","inputs":[{"name":"trader","type":"address","internalType":"address"},{"name":"symbol","type":"string","internalType":"string"},{"name":"betAmount","type":"uint256","internalType":"uint256"},{"name":"targetPrice","type":"uint256","internalType":"uint256"},{"name":"targetTime","type":"uint256","internalType":"uint256"},{"name":"entryPrice","type":"uint256","internalType":"uint256"},{"name":"entryTime","type":"uint256","internalType":"uint256"}],"outputs":[{"name":"betId","type":"uint256","internalType":"uint256"}],"stateMutability":"nonpayable"},{"type":"function","name":"placeBetMeta","inputs":[{"name":"trader","type":"address","internalType":"address"},{"name":"symbol","type":"string","internalType":"string"},{"name":"betAmount","type":"uint256","internalType":"uint256"},{"name":"targetPrice","type":"uint256","internalType":"uint256"},{"name":"targetTime","type":"uint256","internalType":"uint256"},{"name":"entryPrice","type":"uint256","internalType":"uint256"},{"name":"entryTime","type":"uint256","internalType":"uint256"},{"name":"userSignature","type":"bytes","internalType":"bytes"}],"outputs":[{"name":"betId","type":"uint256","internalType":"uint256"}],"stateMutability":"nonpayable"},{"type":"function","name":"renounceRole","inputs":[{"name":"role","type":"bytes32","internalType":"bytes32"},{"name":"callerConfirmation","type":"address","internalType":"address"}],"outputs":[],"stateMutability":"nonpayable"},{"type":"function","name":"revokeRole","inputs":[{"name":"role","type":"bytes32","internalType":"bytes32"},{"name":"account","type":"address","internalType":"address"}],"outputs":[],"stateMutability":"nonpayable"},{"type":"function","name":"settleBet","inputs":[{"name":"betId","type":"uint256","internalType":"uint256"},{"name":"currentPrice","type":"uint256","internalType":"uint256"},{"name":"currentTime","type":"uint256","internalType":"uint256"},{"name":"won","type":"bool","internalType":"bool"}],"outputs":[],"stateMutability":"nonpayable"},{"type":"function","name":"stabilityFund","inputs":[],"outputs":[{"name":"","type":"address","internalType":"contract IStabilityFundOTP"}],"stateMutability":"view"},{"type":"function","name":"supportsInterface","inputs":[{"name":"interfaceId","type":"bytes4","internalType":"bytes4"}],"outputs":[{"name":"","type":"bool","internalType":"bool"}],"stateMutability":"view"},{"type":"function","name":"updateStabilityFund","inputs":[{"name":"_stabilityFund","type":"address","internalType":"address"}],"outputs":[],"stateMutability":"nonpayable"},{"type":"function","name":"usdc","inputs":[],"outputs":[{"name":"","type":"address","internalType":"contract IERC20"}],"stateMutability":"view"},{"type":"function","name":"userBets","inputs":[{"name":"","type":"address","internalType":"address"},{"name":"","type":"uint256","internalType":"uint256"}],"outputs":[{"name":"","type":"uint256","internalType":"uint256"}],"stateMutability":"view"},{"type":"event","name":"BetPlaced","inputs":[{"name":"betId","type":"uint256","indexed":true,"internalType":"uint256"},{"name":"trader","type":"address","indexed":true,"internalType":"address"},{"name":"symbol","type":"string","indexed":false,"internalType":"string"},{"name":"betAmount","type":"uint256","indexed":false,"internalType":"uint256"},{"name":"targetPrice","type":"uint256","indexed":false,"internalType":"uint256"},{"name":"targetTime","type":"uint256","indexed":false,"internalType":"uint256"},{"name":"entryPrice","type":"uint256","indexed":false,"internalType":"uint256"},{"name":"multiplier","type":"uint256","indexed":false,"internalType":"uint256"}],"anonymous":false},{"type":"event","name":"BetSettled","inputs":[{"name":"betId","type":"uint256","indexed":true,"internalType":"uint256"},{"name":"trader","type":"address","indexed":true,"internalType":"address"},{"name":"status","type":"uint8","indexed":false,"internalType":"enum OneTapProfit.BetStatus"},{"name":"payout","type":"uint256","indexed":false,"internalType":"uint256"},{"name":"fee","type":"uint256","indexed":false,"internalType":"uint256"},{"name":"settlePrice","type":"uint256","indexed":false,"internalType":"uint256"}],"anonymous":false},{"type":"event","name":"KeeperExecutionSuccess","inputs":[{"name":"keeper","type":"address","indexed":true,"internalType":"address"},{"name":"trader","type":"address","indexed":true,"internalType":"address"},{"name":"betId","type":"uint256","indexed":false,"internalType":"uint256"}],"anonymous":false},{"type":"event","name":"MetaTransactionExecuted","inputs":[{"name":"userAddress","type":"address","indexed":true,"internalType":"address"},{"name":"relayerAddress","type":"address","indexed":true,"internalType":"address"},{"name":"nonce","type":"uint256","indexed":false,"internalType":"uint256"}],"anonymous":false},{"type":"event","name":"RoleAdminChanged","inputs":[{"name":"role","type":"bytes32","indexed":true,"internalType":"bytes32"},{"name":"previousAdminRole","type":"bytes32","indexed":true,"internalType":"bytes32"},{"name":"newAdminRole","type":"bytes32","indexed":true,"internalType":"bytes32"}],"anonymous":false},{"type":"event","name":"RoleGranted","inputs":[{"name":"role","type":"bytes32","indexed":true,"internalType":"bytes32"},{"name":"account","type":"address","indexed":true,"internalType":"address"},{"name":"sender","type":"address","indexed":true,"internalType":"address"}],"anonymous":false},{"type":"event","name":"RoleRevoked","inputs":[{"name":"role","type":"bytes32","indexed":true,"internalType":"bytes32"},{"name":"account","type":"address","indexed":true,"internalType":"address"},{"name":"sender","type":"address","indexed":true,"internalType":"address"}],"anonymous":false},{"type":"error","name":"AccessControlBadConfirmation","inputs":[]},{"type":"error","name":"AccessControlUnauthorizedAccount","inputs":[{"name":"account","type":"address","internalType":"address"},{"name":"neededRole","type":"bytes32","internalType":"bytes32"}]},{"type":"error","name":"ECDSAInvalidSignature","inputs":[]},{"type":"error","name":"ECDSAInvalidSignatureLength","inputs":[{"name":"length","type":"uint256","internalType":"uint256"}]},{"type":"error","name":"ECDSAInvalidSignatureS","inputs":[{"name":"s","type":"bytes32","internalType":"bytes32"}]},{"type":"error","name":"ReentrancyGuardReentrantCall","inputs":[]}],"bytecode":{"object":"0x60a0346200029557601f620027c938819003918201601f191683019291906001600160401b038411838510176200029a578160a0928492604096875283398101031262000295576200005181620002b0565b9060209162000062838301620002b0565b9062000070858401620002b0565b916200008d60806200008560608701620002b0565b9501620002b0565b60018055946001600160a01b0392831691821562000251578316928315620002015780851615620001bd57808616156200017957861615620001365750608052600280546001600160a01b031916909117905562000110929162000109916200010290620000fb33620002c5565b5062000345565b50620003e7565b5062000484565b505161228790816200052282396080518181816109d001528181610ea301526113290152f35b60649087519062461bcd60e51b82526004820152601d60248201527f4f6e6554617050726f6669743a20496e76616c696420736574746c65720000006044820152fd5b875162461bcd60e51b815260048101839052601c60248201527f4f6e6554617050726f6669743a20496e76616c6964206b6565706572000000006044820152606490fd5b875162461bcd60e51b815260048101839052601c60248201527f4f6e6554617050726f6669743a20496e76616c6964207369676e6572000000006044820152606490fd5b875162461bcd60e51b815260048101839052602360248201527f4f6e6554617050726f6669743a20496e76616c69642053746162696c697479466044820152621d5b9960ea1b6064820152608490fd5b875162461bcd60e51b815260048101839052601a60248201527f4f6e6554617050726f6669743a20496e76616c696420555344430000000000006044820152606490fd5b600080fd5b634e487b7160e01b600052604160045260246000fd5b51906001600160a01b03821682036200029557565b6001600160a01b031660008181527fad3228b676f7d3cd4284a5443f17f1962b36e491b30a40b2405849e597ba5fb5602052604081205490919060ff166200034157818052816020526040822081835260205260408220600160ff198254161790553391600080516020620027a98339815191528180a4600190565b5090565b6001600160a01b031660008181527f92731b430a99d226833495b5b5a9eee62a15e2a9df1b0a790bc8afce8b03780660205260408120549091907f9c6721068556a3c372f1c2ef739a54f29e29d287d6ef1e7b26a65200f38e6fb09060ff16620003e257808352826020526040832082845260205260408320600160ff19825416179055600080516020620027a9833981519152339380a4600190565b505090565b6001600160a01b031660008181527f0363fc6b1c9d3a5e0ab0c2ddc08deb0f30108829db06e84f370d2858ffe78c4660205260408120549091907ffc8737ab85eb45125971625a9ebdb75cc78e01d5c1fa80c4c6e5203f47bc4fab9060ff16620003e257808352826020526040832082845260205260408320600160ff19825416179055600080516020620027a9833981519152339380a4600190565b6001600160a01b031660008181527fa5c179faa98d86951875f38e98a405912d7f90d5dfc4d9d9c0ab0ae0d8aa85a060205260408120549091907f6666bf5bfee463d10a7fc50448047f8a53b7762d7e28fbc5c643182785f3fd3f9060ff16620003e257808352826020526040832082845260205260408320600160ff19825416179055600080516020620027a9833981519152339380a460019056fe608080604052600436101561001357600080fd5b6000803560e01c91826301ffc9a71461180d57508163021d05f6146117de578163061e494f146116d55781630d5b3c211461120157816322af00fa1461117d578163248a9ca3146111525781632d56657d146110a55781632f2ff15d14611069578163357401f514610f53578163364bc15a14610f1957816336568abe14610ed25781633e413bee14610e8e57816347322f1914610e0357816369021fc2146107cc5781637445e85c146107925781638068aa681461073d57816391d14854146106f35781639aca2792146106d6578163a217fddf146106bb578163a2b44393146106a0578163a60265fe14610678578163d547741f14610638578163d72b250d14610288578163d97ef2b31461024e578163dd4d7bf714610233578163ed53afa3146101c6578163ef7994651461018e578163ef97db971461016b578163f1a640f814610170575063f5f0c60e1461016b57600080fd5b611aff565b3461018b578060031936011261018b57602060405160088152f35b80fd5b3461018b57602036600319011261018b576020906040906001600160a01b036101b5611929565b168152600683522054604051908152f35b3461018b578060031936011261018b5760035481805b8281106101ee57602084604051908152f35b808252600460205260ff60096040842001541661020a81611860565b1561021e575b61021990611ddd565b6101dc565b9261022b61021991611ddd565b939050610210565b3461018b578060031936011261018b57602060405160058152f35b3461018b578060031936011261018b5760206040517f9c6721068556a3c372f1c2ef739a54f29e29d287d6ef1e7b26a65200f38e6fb08152f35b3461018b57608036600319011261018b576064356004356024803583151584036105aa573360009081527fa5c179faa98d86951875f38e98a405912d7f90d5dfc4d9d9c0ab0ae0d8aa85a060205260409020547f6666bf5bfee463d10a7fc50448047f8a53b7762d7e28fbc5c643182785f3fd3f9060ff161561061b575061030e61208b565b82855260046020526040852090600982019461033760ff87541661033181611860565b15612205565b81156105cb5780156105c15761034f60015b87611ff1565b604435600a84015581600b8401558687916000146104e657505060038201549160088101548084029084820414841517156104d157606490049260058402848104600514851517156104be57620186a090049481850390898312868312811690878413901516176104ac5760025460018501548b949392916001600160a01b039081169116813b156104a8578560a4928195604051978896879563e9d5047960e01b8752600487015285015260448401528b60648401523360848401525af1801561049d5761047f575b5050907fd53d12eead6d86524696a19b44dd03b552c4c6e2c7b6bfed6a2e9ff4c50849029360ff608094935b6001015497546040516001600160a01b039099169894911661046681611860565b8452602084015260408301526060820152a36001805580f35b61048c90949392946119f5565b6104995790918688610419565b8680fd5b6040513d84823e3d90fd5b8580fd5b634e487b7160e01b8a52601160045289fd5b634e487b7160e01b895260116004528589fd5b84634e487b7160e01b60005260116004526000fd5b600254600185015460038601549396929593926001600160a01b0391821692909116600160ff1b84146105ae5790818b9493923b156105aa5784928360a49286604051978896879563e9d5047960e01b87526004870152850152820360448401528160648401523360848401525af1801561049d57610590575b5050907fd53d12eead6d86524696a19b44dd03b552c4c6e2c7b6bfed6a2e9ff4c50849029360ff60809493610445565b61059d90949392946119f5565b6104995790918688610560565b8480fd5b50634e487b7160e01b8a52601160045289fd5b61034f6002610349565b60405162461bcd60e51b8152602060048201526023818601527f4f6e6554617050726f6669743a20496e76616c69642063757272656e7420707260448201526269636560e81b6064820152608490fd5b826044916040519163e2517d3f60e01b8352336004840152820152fd5b3461018b57604036600319011261018b57610674600435610657611944565b908084528360205261066f6001604086200154611b55565b611bf9565b5080f35b3461018b578060031936011261018b576002546040516001600160a01b039091168152602090f35b3461018b578060031936011261018b576020604051606e8152f35b3461018b578060031936011261018b57602090604051908152f35b3461018b578060031936011261018b576020600354604051908152f35b3461018b57604036600319011261018b57604061070e611944565b91600435815280602052209060018060a01b0316600052602052602060ff604060002054166040519015158152f35b3461018b57604036600319011261018b57610756611929565b6001600160a01b031681526005602052604081208054602435929083101561018b5760206107848484611ad1565b90546040519160031b1c8152f35b3461018b578060031936011261018b5760206040517f6666bf5bfee463d10a7fc50448047f8a53b7762d7e28fbc5c643182785f3fd3f8152f35b3461018b5761010036600319011261018b576107e6611929565b9060243567ffffffffffffffff8111610dff5761080790369060040161195a565b9260e43567ffffffffffffffff8111610dfb576108eb6108e56108316108f493369060040161195a565b919061083b61208b565b60018060a01b0386168852600660205285896108b060c88a60408d20548460405195869360208501986001600160601b03199060601b168952603485013782019060443560348301526064356054830152608435607483015260948201523060601b60b48201520360a8810184520182611a09565b5190207f19457468657265756d205369676e6564204d6573736167653a0a3332000000008952601c52603c8820923691611d96565b906120ae565b9092919261217a565b6001600160a01b03828116911603610daa576001600160a01b0381168352600660205260408320805461092690611ddd565b90556109356044351515611dec565b6109426064351515611e37565b61094f60a4351515611e8e565b61095e60c43560843511611ee4565b600a60c4350160c43511610d965761097f600a60c435016084351015611f41565b61099360843560c43560643560a435611cb1565b6002546040516323b872dd60e01b81526001600160a01b0384811660048301529091166024820152604480359082015260208180606481010381887f00000000000000000000000000000000000000000000000000000000000000006001600160a01b03165af1908115610d8b5790610a13918691610d5c575b50611fa5565b60035493610a2085611ddd565b600355604051610a2f816119c2565b8581526001600160a01b0384166020820152610a4c368887611d96565b60408201526044356060820152606435608082015260843560a082015260a43560c082015260c43560e08201528261010082015281610120820152816101408201528161016082015285825260046020526040822090805182556001820160018060a01b036020830151166001600160601b0360a01b825416179055604081015180519067ffffffffffffffff8211610d4857610aec6002850154611988565b601f8111610d03575b50602090601f8311600114610c90579180600b9492610160948892610c85575b50508160011b916000199060031b1c19161760028501555b606081015160038501556080810151600485015560a0810151600585015560c0810151600685015560e081015160078501556101008101516008850155610b85610120820151610b7c81611860565b60098601611ff1565b610140810151600a85015501519101556001600160a01b0383168152600560205260408120610bb5908690612009565b6001600160a01b038316815260066020526040812054600019810191908211610c715750948492610c627fd19f8673ab97c4b89124fbe529410e194440c7f6eb433e58711fb75ff3a8d2a19360209860405190815233907f03a8e3abe17734f998ec7aacc8db66f8ab07e8096a306018130db6d465f0da748b60018060a01b03871692a36040516001600160a01b03909316969293849360a4359160843591606435916044359188612043565b0390a360018055604051908152f35b634e487b7160e01b81526011600452602490fd5b015190508c80610b15565b906002850186526020862091865b601f1985168110610ceb575092600b94926001926101609583601f19811610610cd2575b505050811b016002850155610b2d565b015160001960f88460031b161c191690558c8080610cc2565b91926020600181928685015181550194019201610c9e565b60028501865260208620601f840160051c810160208510610d41575b601f830160051c82018110610d35575050610af5565b60008155600101610d1f565b5080610d1f565b634e487b7160e01b85526041600452602485fd5b610d7e915060203d602011610d84575b610d768183611a09565b810190611f8d565b87610a0d565b503d610d6c565b6040513d87823e3d90fd5b634e487b7160e01b83526011600452602483fd5b60405162461bcd60e51b8152602060048201526024808201527f4f6e6554617050726f6669743a20496e76616c69642075736572207369676e616044820152637475726560e01b6064820152608490fd5b8380fd5b5080fd5b3461018b57602036600319011261018b57610e1c611929565b610e24611b1b565b6001600160a01b03168015610e49576001600160601b0360a01b600254161760025580f35b60405162461bcd60e51b815260206004820152601d60248201527f4f6e6554617050726f6669743a20496e76616c696420616464726573730000006044820152606490fd5b3461018b578060031936011261018b576040517f00000000000000000000000000000000000000000000000000000000000000006001600160a01b03168152602090f35b3461018b57604036600319011261018b57610eeb611944565b336001600160a01b03821603610f075761067490600435611bf9565b60405163334bd91960e11b8152600490fd5b3461018b578060031936011261018b5760206040517ffc8737ab85eb45125971625a9ebdb75cc78e01d5c1fa80c4c6e5203f47bc4fab8152f35b3461018b57602036600319011261018b57600435610f6f611b1b565b610f7761208b565b8082526004602052604082206009810160038154610f9b60ff821661033181611860565b60ff19161790556002546001820180546003909301546001600160a01b039391928416918691908516833b156110655760a49083604051958694859363e9d5047960e01b8552600485015260248401528160448401528160648401523360848401525af18015610d8b57611052575b505416907fd53d12eead6d86524696a19b44dd03b552c4c6e2c7b6bfed6a2e9ff4c5084902608060405160038152856020820152856040820152856060820152a36001805580f35b61105e909491946119f5565b928461100a565b8280fd5b3461018b57604036600319011261018b57610674600435611088611944565b90808452836020526110a06001604086200154611b55565b611b7b565b3461018b57602080600319360112610dff576001600160a01b036110c7611929565b168252600581526040822060405192838383549182815201908193835284832090835b81811061113e5750505084611100910385611a09565b60405193838594850191818652518092526040850193925b82811061112757505050500390f35b835185528695509381019392810192600101611118565b8254845292860192600192830192016110ea565b3461018b57602036600319011261018b57600160406020926004358152808452200154604051908152f35b3461018b57602036600319011261018b5760048035825260205260409020805460018201546001600160a01b0316916111fd906111bc60028201611a2b565b90600381015460048201546005830154600684015460078501549160088601549360ff60098801541695600b600a890154980154986040519c8d9c8d611880565b0390f35b3461018b5760e036600319011261018b5761121a611929565b60243567ffffffffffffffff81116110655761123a90369060040161195a565b7ffc8737ab85eb45125971625a9ebdb75cc78e01d5c1fa80c4c6e5203f47bc4fab808552846020526040852033865260205260ff604086205416156116b7575061128261208b565b61128f6044351515611dec565b61129c6064351515611e37565b6112a960a4351515611e8e565b6112b860c43560843511611ee4565b600a60c435018060c435116116a3576112d5906084351015611f41565b6112e960843560c43560643560a435611cb1565b6002546040516323b872dd60e01b81526001600160a01b0386811660048301529091166024820152604480359082015290919060208180606481010381897f00000000000000000000000000000000000000000000000000000000000000006001600160a01b03165af1801561169857611369918791610d5c5750611fa5565b6003549361137685611ddd565b60035560405192611386846119c2565b8584526001600160a01b03821660208501526113a3368487611d96565b60408501526044356060850152606435608085015260843560a085015260a43560c085015260c43560e085015280610100850152866101208501528661014085015286610160850152858752600460205260408720845181556001810160018060a01b036020870151166001600160601b0360a01b825416179055604085015180519067ffffffffffffffff8211611684576114426002840154611988565b601f8111611640575b50918991899695949360209b508b90601f831160011461159d579361153193600b6101608b9c867fd19f8673ab97c4b89124fbe529410e194440c7f6eb433e58711fb75ff3a8d2a19d97604097610c629c9b8892611592575b50508160011b916000199060031b1c19161760028501555b606081015160038501556080810151600485015560a0810151600585015560c0810151600685015560e08101516007850155610100810151600885015561150b610120820151610b7c81611860565b610140810151600a85015501519101556001600160a01b038716815260058d5220612009565b6040518681526001600160a01b0384169033907fc34f4f7c36b1617857e2f1cb970527366f0dca39d4fbd0b07c2897ace8a4dec0908c90a36040516001600160a01b03909316969293849360a4359160843591606435916044359188612043565b0151905038806114a4565b906002840185528c852091855b601f1985168110611626575093600b6101608b9c6001876040977fd19f8673ab97c4b89124fbe529410e194440c7f6eb433e58711fb75ff3a8d2a19f99976115319b610c629e9d99601f1981161061160d575b505050811b0160028501556114bc565b015160001960f88460031b161c191690553880806115fd565b8183015184558d9a50600190930192918e01918e016115aa565b600284018b5260208b20601f840160051c81016020851061167d575b601f830160051c8201811061167257505061144b565b8c815560010161165c565b508061165c565b634e487b7160e01b8a52604160045260248afd5b6040513d88823e3d90fd5b634e487b7160e01b85526011600452602485fd5b6044906040519063e2517d3f60e01b82523360048301526024820152fd5b3461018b57602036600319011261018b576040906004358152600460205220604051611700816119c2565b815481526111fd60018060a01b039283600182015416926020810193845261172a60028301611a2b565b946040820195865260038301549260608301938452600481015460808401908152600582015460a08501908152600683015460c0860190815260078401549160e08701928352600885015493610100880194855260ff6009870154169661179088611860565b876101208a0152600b600a880154976101408b019889520154986101608101998a52519b51169b51985190519151925193519451956117ce88611860565b519751986040519c8d9c8d611880565b3461018b57608036600319011261018b576020611805606435604435602435600435611cb1565b604051908152f35b34610dff576020366003190112610dff5760043563ffffffff60e01b81168091036110655760209250637965db0b60e01b811490811561184f575b5015158152f35b6301ffc9a760e01b14905083611848565b6004111561186a57565b634e487b7160e01b600052602160045260246000fd5b989592909c9a9794919c9b9996939b895260209c60018060a01b03168d8a0152610180908160408b0152805180928b015260005b828110611914575050610160999a9b9c506101a090600082828c010152601f80199101168901019b6060890152608088015260a087015260c086015260e085015261010084015261190481611860565b6101208301526101408201520152565b8181018f01518b82016101a001528e016118b4565b600435906001600160a01b038216820361193f57565b600080fd5b602435906001600160a01b038216820361193f57565b9181601f8401121561193f5782359167ffffffffffffffff831161193f576020838186019501011161193f57565b90600182811c921680156119b8575b60208310146119a257565b634e487b7160e01b600052602260045260246000fd5b91607f1691611997565b610180810190811067ffffffffffffffff8211176119df57604052565b634e487b7160e01b600052604160045260246000fd5b67ffffffffffffffff81116119df57604052565b90601f8019910116810190811067ffffffffffffffff8211176119df57604052565b9060405191826000825492611a3f84611988565b908184526001948581169081600014611aae5750600114611a6b575b5050611a6992500383611a09565b565b9093915060005260209081600020936000915b818310611a96575050611a6993508201013880611a5b565b85548884018501529485019487945091830191611a7e565b915050611a6994506020925060ff191682840152151560051b8201013880611a5b565b8054821015611ae95760005260206000200190600090565b634e487b7160e01b600052603260045260246000fd5b3461193f57600036600319011261193f576020604051600a8152f35b3360009081527fad3228b676f7d3cd4284a5443f17f1962b36e491b30a40b2405849e597ba5fb5602052604081205460ff16156116b75750565b80600052600060205260406000203360005260205260ff60406000205416156116b75750565b9060009180835282602052604083209160018060a01b03169182845260205260ff60408420541615600014611bf457808352826020526040832082845260205260408320600160ff198254161790557f2f8788117e7eff1d82e926ec794901d17c78024a50270940304540a733656f0d339380a4600190565b505090565b9060009180835282602052604083209160018060a01b03169182845260205260ff604084205416600014611bf45780835282602052604083208284526020526040832060ff1981541690557ff6391f5c32d9c69d2a47ea670b442974b53935d1edc7fd64eb21e047a839171b339380a4600190565b91908203918211611c7b57565b634e487b7160e01b600052601160045260246000fd5b8115611c9b570490565b634e487b7160e01b600052601260045260246000fd5b9092919281600091818111600014611d6757611ccd9250611c6e565b9061271091828102928184041490151715611c7b57611ceb91611c91565b915b60009181811115611d5f57611d029250611c6e565b905b603c810290808204603c1490151715611c7b57612710900490602881029080820460281490151715611c7b5781606e019182606e11611c7b57606e906103e88093040101809211611c7b57808211611d5a575090565b905090565b505090611d04565b611d7091611c6e565b9061271091828102928184041490151715610c71575090611d9091611c91565b91611ced565b92919267ffffffffffffffff82116119df5760405191611dc0601f8201601f191660200184611a09565b82948184528183011161193f578281602093846000960137010152565b6000198114611c7b5760010190565b15611df357565b606460405162461bcd60e51b815260206004820152602060248201527f4f6e6554617050726f6669743a20496e76616c69642062657420616d6f756e746044820152fd5b15611e3e57565b60405162461bcd60e51b815260206004820152602260248201527f4f6e6554617050726f6669743a20496e76616c69642074617267657420707269604482015261636560f01b6064820152608490fd5b15611e9557565b60405162461bcd60e51b815260206004820152602160248201527f4f6e6554617050726f6669743a20496e76616c696420656e74727920707269636044820152606560f81b6064820152608490fd5b15611eeb57565b60405162461bcd60e51b815260206004820152602860248201527f4f6e6554617050726f6669743a205461726765742074696d65206d7573742062604482015267652066757475726560c01b6064820152608490fd5b15611f4857565b60405162461bcd60e51b815260206004820152601e60248201527f4f6e6554617050726f6669743a2054617267657420746f6f20636c6f736500006044820152606490fd5b9081602091031261193f5751801515810361193f5790565b15611fac57565b60405162461bcd60e51b815260206004820152601d60248201527f4f6e6554617050726f6669743a205472616e73666572206661696c65640000006044820152606490fd5b90611ffb81611860565b60ff80198354169116179055565b8054680100000000000000008110156119df5761202b91600182018155611ad1565b819291549060031b91821b91600019901b1916179055565b93908260a0969360e0929a9998959a60c088528160c0890152838801376000828288010152601f80199101168501019760208501526040840152606083015260808201520152565b60026001541461209c576002600155565b604051633ee5aeb560e01b8152600490fd5b81519190604183036120df576120d892506020820151906060604084015193015160001a906120ea565b9192909190565b505060009160029190565b91907f7fffffffffffffffffffffffffffffff5d576e7357a4501ddfe92f46681b20a0841161216e57926020929160ff608095604051948552168484015260408301526060820152600092839182805260015afa156121625780516001600160a01b0381161561215957918190565b50809160019190565b604051903d90823e3d90fd5b50505060009160039190565b61218381611860565b8061218c575050565b61219581611860565b600181036121af5760405163f645eedf60e01b8152600490fd5b6121b881611860565b600281036121d95760405163fce698f760e01b815260048101839052602490fd5b806121e5600392611860565b146121ed5750565b602490604051906335e2f38360e21b82526004820152fd5b1561220c57565b60405162461bcd60e51b815260206004820152601c60248201527f4f6e6554617050726f6669743a20426574206e6f7420616374697665000000006044820152606490fdfea2646970667358221220fd18df0454e3c021669e60ecd279e6bddb57df8cc57fb002e3267ae0eb0046d764736f6c634300081400332f8788117e7eff1d82e926ec794901d17c78024a50270940304540a733656f0d","linkReferences":{}},"methodIdentifiers":{"BACKEND_SIGNER_ROLE()":"d97ef2b3","BASE_MULTIPLIER()":"a2b44393","DEFAULT_ADMIN_ROLE()":"a217fddf","GRID_DURATION()":"f5f0c60e","KEEPER_ROLE()":"364bc15a","MIN_TIME_OFFSET()":"ef97db97","PRICE_DECIMALS()":"f1a640f8","SETTLER_ROLE()":"7445e85c","TRADING_FEE_BPS()":"dd4d7bf7","bets(uint256)":"22af00fa","calculateMultiplier(uint256,uint256,uint256,uint256)":"021d05f6","cancelBet(uint256)":"357401f5","getActiveBetsCount()":"ed53afa3","getBet(uint256)":"061e494f","getRoleAdmin(bytes32)":"248a9ca3","getUserBets(address)":"2d56657d","grantRole(bytes32,address)":"2f2ff15d","hasRole(bytes32,address)":"91d14854","metaNonces(address)":"ef799465","nextBetId()":"9aca2792","placeBetByKeeper(address,string,uint256,uint256,uint256,uint256,uint256)":"0d5b3c21","placeBetMeta(address,string,uint256,uint256,uint256,uint256,uint256,bytes)":"69021fc2","renounceRole(bytes32,address)":"36568abe","revokeRole(bytes32,address)":"d547741f","settleBet(uint256,uint256,uint256,bool)":"d72b250d","stabilityFund()":"a60265fe","supportsInterface(bytes4)":"01ffc9a7","updateStabilityFund(address)":"47322f19","usdc()":"3e413bee","userBets(address,uint256)":"8068aa68"},"id":45}