{"abi":[{"type":"constructor","inputs":[],"stateMutability":"nonpayable"},{"type":"function","name":"DEFAULT_ADMIN_ROLE","inputs":[],"outputs":[{"name":"","type":"bytes32","internalType":"bytes32"}],"stateMutability":"view"},{"type":"function","name":"EXECUTOR_ROLE","inputs":[],"outputs":[{"name":"","type":"bytes32","internalType":"bytes32"}],"stateMutability":"view"},{"type":"function","name":"calculatePnL","inputs":[{"name":"positionId","type":"uint256","internalType":"uint256"},{"name":"currentPrice","type":"uint256","internalType":"uint256"}],"outputs":[{"name":"pnl","type":"int256","internalType":"int256"}],"stateMutability":"view"},{"type":"function","name":"closePosition","inputs":[{"name":"positionId","type":"uint256","internalType":"uint256"},{"name":"exitPrice","type":"uint256","internalType":"uint256"}],"outputs":[{"name":"pnl","type":"int256","internalType":"int256"}],"stateMutability":"nonpayable"},{"type":"function","name":"createPosition","inputs":[{"name":"trader","type":"address","internalType":"address"},{"name":"symbol","type":"string","internalType":"string"},{"name":"isLong","type":"bool","internalType":"bool"},{"name":"collateral","type":"uint256","internalType":"uint256"},{"name":"leverage","type":"uint256","internalType":"uint256"},{"name":"entryPrice","type":"uint256","internalType":"uint256"}],"outputs":[{"name":"positionId","type":"uint256","internalType":"uint256"}],"stateMutability":"nonpayable"},{"type":"function","name":"getPosition","inputs":[{"name":"positionId","type":"uint256","internalType":"uint256"}],"outputs":[{"name":"","type":"tuple","internalType":"struct PositionManager.Position","components":[{"name":"id","type":"uint256","internalType":"uint256"},{"name":"trader","type":"address","internalType":"address"},{"name":"symbol","type":"string","internalType":"string"},{"name":"isLong","type":"bool","internalType":"bool"},{"name":"collateral","type":"uint256","internalType":"uint256"},{"name":"size","type":"uint256","internalType":"uint256"},{"name":"leverage","type":"uint256","internalType":"uint256"},{"name":"entryPrice","type":"uint256","internalType":"uint256"},{"name":"openTimestamp","type":"uint256","internalType":"uint256"},{"name":"status","type":"uint8","internalType":"enum PositionManager.PositionStatus"}]}],"stateMutability":"view"},{"type":"function","name":"getPositionStatus","inputs":[{"name":"positionId","type":"uint256","internalType":"uint256"}],"outputs":[{"name":"","type":"uint8","internalType":"enum PositionManager.PositionStatus"}],"stateMutability":"view"},{"type":"function","name":"getRoleAdmin","inputs":[{"name":"role","type":"bytes32","internalType":"bytes32"}],"outputs":[{"name":"","type":"bytes32","internalType":"bytes32"}],"stateMutability":"view"},{"type":"function","name":"getUserOpenPositions","inputs":[{"name":"user","type":"address","internalType":"address"}],"outputs":[{"name":"","type":"tuple[]","internalType":"struct PositionManager.Position[]","components":[{"name":"id","type":"uint256","internalType":"uint256"},{"name":"trader","type":"address","internalType":"address"},{"name":"symbol","type":"string","internalType":"string"},{"name":"isLong","type":"bool","internalType":"bool"},{"name":"collateral","type":"uint256","internalType":"uint256"},{"name":"size","type":"uint256","internalType":"uint256"},{"name":"leverage","type":"uint256","internalType":"uint256"},{"name":"entryPrice","type":"uint256","internalType":"uint256"},{"name":"openTimestamp","type":"uint256","internalType":"uint256"},{"name":"status","type":"uint8","internalType":"enum PositionManager.PositionStatus"}]}],"stateMutability":"view"},{"type":"function","name":"getUserPositions","inputs":[{"name":"user","type":"address","internalType":"address"}],"outputs":[{"name":"","type":"uint256[]","internalType":"uint256[]"}],"stateMutability":"view"},{"type":"function","name":"grantRole","inputs":[{"name":"role","type":"bytes32","internalType":"bytes32"},{"name":"account","type":"address","internalType":"address"}],"outputs":[],"stateMutability":"nonpayable"},{"type":"function","name":"hasRole","inputs":[{"name":"role","type":"bytes32","internalType":"bytes32"},{"name":"account","type":"address","internalType":"address"}],"outputs":[{"name":"","type":"bool","internalType":"bool"}],"stateMutability":"view"},{"type":"function","name":"liquidatePosition","inputs":[{"name":"positionId","type":"uint256","internalType":"uint256"},{"name":"liquidationPrice","type":"uint256","internalType":"uint256"}],"outputs":[],"stateMutability":"nonpayable"},{"type":"function","name":"nextPositionId","inputs":[],"outputs":[{"name":"","type":"uint256","internalType":"uint256"}],"stateMutability":"view"},{"type":"function","name":"positionExists","inputs":[{"name":"positionId","type":"uint256","internalType":"uint256"}],"outputs":[{"name":"","type":"bool","internalType":"bool"}],"stateMutability":"view"},{"type":"function","name":"positions","inputs":[{"name":"","type":"uint256","internalType":"uint256"}],"outputs":[{"name":"id","type":"uint256","internalType":"uint256"},{"name":"trader","type":"address","internalType":"address"},{"name":"symbol","type":"string","internalType":"string"},{"name":"isLong","type":"bool","internalType":"bool"},{"name":"collateral","type":"uint256","internalType":"uint256"},{"name":"size","type":"uint256","internalType":"uint256"},{"name":"leverage","type":"uint256","internalType":"uint256"},{"name":"entryPrice","type":"uint256","internalType":"uint256"},{"name":"openTimestamp","type":"uint256","internalType":"uint256"},{"name":"status","type":"uint8","internalType":"enum PositionManager.PositionStatus"}],"stateMutability":"view"},{"type":"function","name":"renounceRole","inputs":[{"name":"role","type":"bytes32","internalType":"bytes32"},{"name":"callerConfirmation","type":"address","internalType":"address"}],"outputs":[],"stateMutability":"nonpayable"},{"type":"function","name":"revokeRole","inputs":[{"name":"role","type":"bytes32","internalType":"bytes32"},{"name":"account","type":"address","internalType":"address"}],"outputs":[],"stateMutability":"nonpayable"},{"type":"function","name":"supportsInterface","inputs":[{"name":"interfaceId","type":"bytes4","internalType":"bytes4"}],"outputs":[{"name":"","type":"bool","internalType":"bool"}],"stateMutability":"view"},{"type":"function","name":"userPositions","inputs":[{"name":"","type":"address","internalType":"address"},{"name":"","type":"uint256","internalType":"uint256"}],"outputs":[{"name":"","type":"uint256","internalType":"uint256"}],"stateMutability":"view"},{"type":"event","name":"PositionClosed","inputs":[{"name":"positionId","type":"uint256","indexed":true,"internalType":"uint256"},{"name":"exitPrice","type":"uint256","indexed":false,"internalType":"uint256"},{"name":"pnl","type":"int256","indexed":false,"internalType":"int256"}],"anonymous":false},{"type":"event","name":"PositionLiquidated","inputs":[{"name":"positionId","type":"uint256","indexed":true,"internalType":"uint256"},{"name":"liquidationPrice","type":"uint256","indexed":false,"internalType":"uint256"},{"name":"liquidator","type":"address","indexed":false,"internalType":"address"}],"anonymous":false},{"type":"event","name":"PositionOpened","inputs":[{"name":"positionId","type":"uint256","indexed":true,"internalType":"uint256"},{"name":"trader","type":"address","indexed":true,"internalType":"address"},{"name":"symbol","type":"string","indexed":false,"internalType":"string"},{"name":"isLong","type":"bool","indexed":false,"internalType":"bool"},{"name":"collateral","type":"uint256","indexed":false,"internalType":"uint256"},{"name":"size","type":"uint256","indexed":false,"internalType":"uint256"},{"name":"leverage","type":"uint256","indexed":false,"internalType":"uint256"},{"name":"entryPrice","type":"uint256","indexed":false,"internalType":"uint256"}],"anonymous":false},{"type":"event","name":"RoleAdminChanged","inputs":[{"name":"role","type":"bytes32","indexed":true,"internalType":"bytes32"},{"name":"previousAdminRole","type":"bytes32","indexed":true,"internalType":"bytes32"},{"name":"newAdminRole","type":"bytes32","indexed":true,"internalType":"bytes32"}],"anonymous":false},{"type":"event","name":"RoleGranted","inputs":[{"name":"role","type":"bytes32","indexed":true,"internalType":"bytes32"},{"name":"account","type":"address","indexed":true,"internalType":"address"},{"name":"sender","type":"address","indexed":true,"internalType":"address"}],"anonymous":false},{"type":"event","name":"RoleRevoked","inputs":[{"name":"role","type":"bytes32","indexed":true,"internalType":"bytes32"},{"name":"account","type":"address","indexed":true,"internalType":"address"},{"name":"sender","type":"address","indexed":true,"internalType":"address"}],"anonymous":false},{"type":"error","name":"AccessControlBadConfirmation","inputs":[]},{"type":"error","name":"AccessControlUnauthorizedAccount","inputs":[{"name":"account","type":"address","internalType":"address"},{"name":"neededRole","type":"bytes32","internalType":"bytes32"}]},{"type":"error","name":"ReentrancyGuardReentrantCall","inputs":[]}],"bytecode":{"object":"0x6080604052346100355760018055600160025561001b3361003a565b50610025336100b8565b5060405161171e90816101598239f35b600080fd5b6001600160a01b031660008181527fad3228b676f7d3cd4284a5443f17f1962b36e491b30a40b2405849e597ba5fb5602052604081205490919060ff166100b457818052816020526040822081835260205260408220600160ff1982541617905533916000805160206118778339815191528180a4600190565b5090565b6001600160a01b031660008181527fdae2aa361dfd1ca020a396615627d436107c35eff9fe7738a3512819782d706960205260408120549091907fd8aa0f3194971a2a116679f7c2090f6939c8d4e01a2a8d7e41d55e5351469e639060ff1661015357808352826020526040832082845260205260408320600160ff19825416179055600080516020611877833981519152339380a4600190565b50509056fe608080604052600436101561001357600080fd5b60003560e01c90816301ffc9a714610f6b5750806307bd026514610f3057806322fb73d914610ede578063248a9ca314610eaf5780632a6bc2dd14610dfb5780632d6ce61d14610cfc5780632f2ff15d14610cbd57806336568abe14610c765780634441aacb146109e357806358d0594d146109c25780635e1b4d991461096a578063899346c71461094c5780638eadf6671461091e57806391d14854146108d157806399fbab8814610814578063a217fddf146107f8578063c286db69146102bc578063d3c4e4a614610210578063d547741f146101cf5763eb02c301146100fb57600080fd5b346101ca5760203660031901126101ca5761011461166f565b5060043560005260036020526101c660406000206101b260ff60096040519361013c8561113b565b8054855260018101546001600160a01b0316602086015261015f6002820161117a565b6040860152826003820154161515606086015260048101546080860152600581015460a0860152600681015460c0860152600781015460e08601526008810154610100860152015416610120830161140e565b60405191829160208352602083019061104d565b0390f35b600080fd5b346101ca5760403660031901126101ca5761020e6004356101ee610fe1565b9080600052600060205261020960016040600020015461129a565b61133e565b005b346101ca5761021e36610ff7565b610226611220565b61022e61141a565b8160005260036020526009604060002061024a8154151561143d565b019081549060ff82169260038410156102a657600260409361028d7f88c10ad862146658644c54ea7cfce54c1ffea1ef77d3bc794934582912fca1dd9615611495565b60ff19161790558151908152336020820152a260018055005b634e487b7160e01b600052602160045260246000fd5b346101ca5760c03660031901126101ca576102d5610fcb565b67ffffffffffffffff602435116101ca573660236024350112156101ca5767ffffffffffffffff60243560040135116101ca5736602480356004013581350101116101ca5760443580151581036101ca5761032e611220565b61033661141a565b6001600160a01b038216156107b3576064351561076257608435156107135761036260a43515156113b3565b6002549061036f826113ff565b6002556064356084356064350204608435036106fd576040516103918161113b565b82815260018060a01b03841660208201526040516103bf6020601f19601f6024356004013501160182611158565b602480356004810135808452910160208301376000602060243560040135830101526040820152811515606082015260643560808201526084356064350260a082015260843560c082015260a43560e0820152426101008201526000610120820152826000526003602052604060002090805182556001820160018060a01b036020830151166bffffffffffffffffffffffff60a01b825416179055604081015180519067ffffffffffffffff82116106215761047f6002850154611101565b601f81116106b6575b50602090601f83116001146106425761012093929160009183610637575b50508160011b916000199060031b1c19161760028401555b600383016060820151151560ff801983541691161790556080810151600484015560a0810151600584015560c0810151600684015560e08101516007840155610100810151600884015501519060038210156102a6576009019060ff8019835416911617905560018060a01b038316600052600460205260406000208054680100000000000000008110156106215760209461058282869460017f76e26ebc0a64946ab032caa0efeb74c4009f2ec4ff7573bc34d6d5d2abfa2844950181556110d3565b81549060031b9085821b91600019901b19161790556040519360c085526024356004013560c086015260243560040135602480350160e0870137600060e060243560040135870101521515868501526064356040850152608435606435026060850152608435608085015260a43560a085015260018060a01b03169260e081601f19601f6024356004013501168101030190a360018055604051908152f35b634e487b7160e01b600052604160045260246000fd5b0151905088806104a6565b906002850160005260206000209160005b601f198516811061069e57509183916001936101209695601f19811610610685575b505050811b0160028401556104be565b015160001960f88460031b161c19169055888080610675565b91926020600181928685015181550194019201610653565b600285016000526020600020601f840160051c8101602085106106f6575b601f830160051c820181106106ea575050610488565b600081556001016106d4565b50806106d4565b634e487b7160e01b600052601160045260246000fd5b60405162461bcd60e51b815260206004820152602160248201527f506f736974696f6e4d616e616765723a20496e76616c6964206c6576657261676044820152606560f81b6064820152608490fd5b60405162461bcd60e51b815260206004820152602360248201527f506f736974696f6e4d616e616765723a20496e76616c696420636f6c6c6174656044820152621c985b60ea1b6064820152608490fd5b60405162461bcd60e51b815260206004820152601f60248201527f506f736974696f6e4d616e616765723a20496e76616c696420747261646572006044820152606490fd5b346101ca5760003660031901126101ca57602060405160008152f35b346101ca5760203660031901126101ca576004356000908152600360205260409020805460018201546001600160a01b0316916101c66108566002830161117a565b60ff60038401541692600481015460058201546006830154906007840154926108a460ff6009600888015497015416966040519b8c9b8c5260208c01526101408060408d01528b019061100d565b97151560608a0152608089015260a088015260c087015260e0860152610100850152610120840190610fbe565b346101ca5760403660031901126101ca576108ea610fe1565b600435600052600060205260406000209060018060a01b0316600052602052602060ff604060002054166040519015158152f35b346101ca5760203660031901126101ca57600435600052600360205260206040600020541515604051908152f35b346101ca5760003660031901126101ca576020600254604051908152f35b346101ca5760403660031901126101ca57610983610fcb565b6001600160a01b03166000908152600460205260409020805460243591908210156101ca576020916109b4916110d3565b90546040519160031b1c8152f35b346101ca5760206109db6109d536610ff7565b90611505565b604051908152f35b346101ca576020806003193601126101ca576001600160a01b0380610a06610fcb565b16600052600482526040600020604051808285829454938481520190600052856000209260005b87828210610c6057505050610a4492500382611158565b60009060005b8151811015610aa357610a5d81836116bc565b51600052600380865260ff60096040600020015416908110156102a65715610a8e575b610a89906113ff565b610a4a565b91610a9b610a89916113ff565b929050610a80565b50929091610ab0836116d0565b92610abe6040519485611158565b808452610acd601f19916116d0565b018260005b828110610c4a5750505060009060005b8551811015610bec57610af581876116bc565b51600052600380855260ff600981816040600020015416838110156102a65715610b2b575b505050610b26906113ff565b610ae2565b91610bc8849692610be394610b43610b26978d6116bc565b51600052838a5260406000208260405195610b5d8761113b565b825487528a6001840154168d880152610b786002840161117a565b6040880152820154161515606086015260048101546080860152600581015460a0860152600681015460c0860152600781015460e08601526008810154610100860152015416610120830161140e565b610bd282896116bc565b52610bdd81886116bc565b506113ff565b92908780610b1a565b604080518581528651818701819052600092600582901b830181019189890191899085015b828710610c1e5785850386f35b909192938280610c3a600193603f198a8203018652885161104d565b9601920196019592919092610c11565b610c5261166f565b828288010152018390610ad2565b8554845260019586019587955093019201610a2d565b346101ca5760403660031901126101ca57610c8f610fe1565b336001600160a01b03821603610cab5761020e9060043561133e565b60405163334bd91960e11b8152600490fd5b346101ca5760403660031901126101ca5761020e600435610cdc610fe1565b90806000526000602052610cf760016040600020015461129a565b6112c0565b346101ca57610d0a36610ff7565b610d12611220565b610d1a61141a565b81600052600360205260096040600020610d368154151561143d565b019182549160ff831660038110156102a657610d529015611495565b8015610daa576040816020956001610d8b7f29de6f9a673594d883cc86f79c2379876369f464d7a1247fa6ad4f0d16c9a5199587611505565b9660ff191617905581519081528486820152a260018055604051908152f35b60405162461bcd60e51b815260206004820152602360248201527f506f736974696f6e4d616e616765723a20496e76616c6964206578697420707260448201526269636560e81b6064820152608490fd5b346101ca576020806003193601126101ca576001600160a01b03610e1d610fcb565b1660005260048152604060002060405190818382549182815201908192600052846000209060005b86828210610e9b578686610e5b82880383611158565b604051928392818401908285525180915260408401929160005b828110610e8457505050500390f35b835185528695509381019392810192600101610e75565b835485529093019260019283019201610e45565b346101ca5760203660031901126101ca5760043560005260006020526020600160406000200154604051908152f35b346101ca5760203660031901126101ca57600435806000526003602052610f0b604060002054151561143d565b6000526003602052602060ff60096040600020015416610f2e6040518092610fbe565bf35b346101ca5760003660031901126101ca5760206040517fd8aa0f3194971a2a116679f7c2090f6939c8d4e01a2a8d7e41d55e5351469e638152f35b346101ca5760203660031901126101ca576004359063ffffffff60e01b82168092036101ca57602091637965db0b60e01b8114908115610fad575b5015158152f35b6301ffc9a760e01b14905083610fa6565b9060038210156102a65752565b600435906001600160a01b03821682036101ca57565b602435906001600160a01b03821682036101ca57565b60409060031901126101ca576004359060243590565b919082519283825260005b848110611039575050826000602080949584010152601f8019910116010190565b602081830181015184830182015201611018565b906110d0908251815260018060a01b036020840151166020820152611081604084015161014080604085015283019061100d565b926060810151151560608301526080810151608083015260a081015160a083015260c081015160c083015260e081015160e0830152610100808201519083015261012080910151910190610fbe565b90565b80548210156110eb5760005260206000200190600090565b634e487b7160e01b600052603260045260246000fd5b90600182811c92168015611131575b602083101461111b57565b634e487b7160e01b600052602260045260246000fd5b91607f1691611110565b610140810190811067ffffffffffffffff82111761062157604052565b90601f8019910116810190811067ffffffffffffffff82111761062157604052565b906040519182600082549261118e84611101565b9081845260019485811690816000146111fd57506001146111ba575b50506111b892500383611158565b565b9093915060005260209081600020936000915b8183106111e55750506111b8935082010138806111aa565b855488840185015294850194879450918301916111cd565b9150506111b894506020925060ff191682840152151560051b82010138806111aa565b3360009081527fdae2aa361dfd1ca020a396615627d436107c35eff9fe7738a3512819782d706960205260409020547fd8aa0f3194971a2a116679f7c2090f6939c8d4e01a2a8d7e41d55e5351469e639060ff161561127c5750565b6044906040519063e2517d3f60e01b82523360048301526024820152fd5b80600052600060205260406000203360005260205260ff604060002054161561127c5750565b9060009180835282602052604083209160018060a01b03169182845260205260ff6040842054161560001461133957808352826020526040832082845260205260408320600160ff198254161790557f2f8788117e7eff1d82e926ec794901d17c78024a50270940304540a733656f0d339380a4600190565b505090565b9060009180835282602052604083209160018060a01b03169182845260205260ff6040842054166000146113395780835282602052604083208284526020526040832060ff1981541690557ff6391f5c32d9c69d2a47ea670b442974b53935d1edc7fd64eb21e047a839171b339380a4600190565b156113ba57565b60405162461bcd60e51b815260206004820152601e60248201527f506f736974696f6e4d616e616765723a20496e76616c696420707269636500006044820152606490fd5b60001981146106fd5760010190565b60038210156102a65752565b60026001541461142b576002600155565b604051633ee5aeb560e01b8152600490fd5b1561144457565b60405162461bcd60e51b815260206004820152602360248201527f506f736974696f6e4d616e616765723a20506f736974696f6e206e6f7420666f6044820152621d5b9960ea1b6064820152608490fd5b1561149c57565b60405162461bcd60e51b815260206004820152602260248201527f506f736974696f6e4d616e616765723a20506f736974696f6e206e6f74206f7060448201526132b760f11b6064820152608490fd5b818103929160001380158285131691841216176106fd57565b90600091825260036020526040822091604051916115228361113b565b8354835260018401546001600160a01b031660208401526115456002850161117a565b604084015260ff600385015416606084019015158152600485015460808501526115b360058601549460a08101958652600687015460c08201526115ab60ff600960078a01549960e085019a8b526008810154610100860152015416610120830161140e565b51151561143d565b6115be8215156113b3565b511561165e5783516115cf916114ec565b915b51600160ff1b938382029390918382128682141661164a578185051490151715611636575192831561162257821460001984141661160e57500590565b634e487b7160e01b81526011600452602490fd5b634e487b7160e01b82526012600452602482fd5b634e487b7160e01b82526011600452602482fd5b634e487b7160e01b84526011600452602484fd5b6116699084516114ec565b916115d1565b6040519061167c8261113b565b81610120600091828152826020820152606060408201528260608201528260808201528260a08201528260c08201528260e0820152826101008201520152565b80518210156110eb5760209160051b010190565b67ffffffffffffffff81116106215760051b6020019056fea2646970667358221220d2083e2a2e4008cd253c63c56f6681e6819658e6ccc4b95896d2b52a26e9ae6464736f6c634300081400332f8788117e7eff1d82e926ec794901d17c78024a50270940304540a733656f0d","linkReferences":{}},"methodIdentifiers":{"DEFAULT_ADMIN_ROLE()":"a217fddf","EXECUTOR_ROLE()":"07bd0265","calculatePnL(uint256,uint256)":"58d0594d","closePosition(uint256,uint256)":"2d6ce61d","createPosition(address,string,bool,uint256,uint256,uint256)":"c286db69","getPosition(uint256)":"eb02c301","getPositionStatus(uint256)":"22fb73d9","getRoleAdmin(bytes32)":"248a9ca3","getUserOpenPositions(address)":"4441aacb","getUserPositions(address)":"2a6bc2dd","grantRole(bytes32,address)":"2f2ff15d","hasRole(bytes32,address)":"91d14854","liquidatePosition(uint256,uint256)":"d3c4e4a6","nextPositionId()":"899346c7","positionExists(uint256)":"8eadf667","positions(uint256)":"99fbab88","renounceRole(bytes32,address)":"36568abe","revokeRole(bytes32,address)":"d547741f","supportsInterface(bytes4)":"01ffc9a7","userPositions(address,uint256)":"5e1b4d99"},"id":46}