{"abi":[{"type":"constructor","inputs":[],"stateMutability":"nonpayable"},{"type":"function","name":"assetConfigs","inputs":[{"name":"","type":"string","internalType":"string"}],"outputs":[{"name":"enabled","type":"bool","internalType":"bool"},{"name":"maxLeverage","type":"uint256","internalType":"uint256"},{"name":"maxPositionSize","type":"uint256","internalType":"uint256"},{"name":"maxOpenInterest","type":"uint256","internalType":"uint256"},{"name":"liquidationThresholdBps","type":"uint256","internalType":"uint256"}],"stateMutability":"view"},{"type":"function","name":"calculateLiquidationPrice","inputs":[{"name":"isLong","type":"bool","internalType":"bool"},{"name":"entryPrice","type":"uint256","internalType":"uint256"},{"name":"collateral","type":"uint256","internalType":"uint256"},{"name":"size","type":"uint256","internalType":"uint256"},{"name":"symbol","type":"string","internalType":"string"}],"outputs":[{"name":"","type":"uint256","internalType":"uint256"}],"stateMutability":"view"},{"type":"function","name":"checkLiquidation","inputs":[{"name":"isLong","type":"bool","internalType":"bool"},{"name":"entryPrice","type":"uint256","internalType":"uint256"},{"name":"currentPrice","type":"uint256","internalType":"uint256"},{"name":"collateral","type":"uint256","internalType":"uint256"},{"name":"size","type":"uint256","internalType":"uint256"},{"name":"symbol","type":"string","internalType":"string"}],"outputs":[{"name":"","type":"bool","internalType":"bool"}],"stateMutability":"view"},{"type":"function","name":"currentOpenInterest","inputs":[{"name":"","type":"string","internalType":"string"}],"outputs":[{"name":"","type":"uint256","internalType":"uint256"}],"stateMutability":"view"},{"type":"function","name":"decreaseOpenInterest","inputs":[{"name":"symbol","type":"string","internalType":"string"},{"name":"size","type":"uint256","internalType":"uint256"}],"outputs":[],"stateMutability":"nonpayable"},{"type":"function","name":"getAssetConfig","inputs":[{"name":"symbol","type":"string","internalType":"string"}],"outputs":[{"name":"","type":"tuple","internalType":"struct RiskManager.AssetConfig","components":[{"name":"enabled","type":"bool","internalType":"bool"},{"name":"maxLeverage","type":"uint256","internalType":"uint256"},{"name":"maxPositionSize","type":"uint256","internalType":"uint256"},{"name":"maxOpenInterest","type":"uint256","internalType":"uint256"},{"name":"liquidationThresholdBps","type":"uint256","internalType":"uint256"}]}],"stateMutability":"view"},{"type":"function","name":"getOpenInterest","inputs":[{"name":"symbol","type":"string","internalType":"string"}],"outputs":[{"name":"","type":"uint256","internalType":"uint256"}],"stateMutability":"view"},{"type":"function","name":"increaseOpenInterest","inputs":[{"name":"symbol","type":"string","internalType":"string"},{"name":"size","type":"uint256","internalType":"uint256"}],"outputs":[],"stateMutability":"nonpayable"},{"type":"function","name":"owner","inputs":[],"outputs":[{"name":"","type":"address","internalType":"address"}],"stateMutability":"view"},{"type":"function","name":"renounceOwnership","inputs":[],"outputs":[],"stateMutability":"nonpayable"},{"type":"function","name":"setAssetConfig","inputs":[{"name":"symbol","type":"string","internalType":"string"},{"name":"enabled","type":"bool","internalType":"bool"},{"name":"maxLeverage","type":"uint256","internalType":"uint256"},{"name":"maxPositionSize","type":"uint256","internalType":"uint256"},{"name":"maxOpenInterest","type":"uint256","internalType":"uint256"},{"name":"liquidationThresholdBps","type":"uint256","internalType":"uint256"}],"outputs":[],"stateMutability":"nonpayable"},{"type":"function","name":"shouldLiquidate","inputs":[{"name":"positionId","type":"uint256","internalType":"uint256"},{"name":"currentPrice","type":"uint256","internalType":"uint256"},{"name":"collateral","type":"uint256","internalType":"uint256"},{"name":"size","type":"uint256","internalType":"uint256"},{"name":"entryPrice","type":"uint256","internalType":"uint256"},{"name":"isLong","type":"bool","internalType":"bool"}],"outputs":[{"name":"","type":"bool","internalType":"bool"}],"stateMutability":"view"},{"type":"function","name":"transferOwnership","inputs":[{"name":"newOwner","type":"address","internalType":"address"}],"outputs":[],"stateMutability":"nonpayable"},{"type":"function","name":"validatePosition","inputs":[{"name":"symbol","type":"string","internalType":"string"},{"name":"collateral","type":"uint256","internalType":"uint256"},{"name":"leverage","type":"uint256","internalType":"uint256"},{"name":"size","type":"uint256","internalType":"uint256"}],"outputs":[],"stateMutability":"view"},{"type":"function","name":"validateTrade","inputs":[{"name":"trader","type":"address","internalType":"address"},{"name":"symbol","type":"string","internalType":"string"},{"name":"leverage","type":"uint256","internalType":"uint256"},{"name":"collateral","type":"uint256","internalType":"uint256"},{"name":"isLong","type":"bool","internalType":"bool"}],"outputs":[{"name":"valid","type":"bool","internalType":"bool"}],"stateMutability":"view"},{"type":"event","name":"AssetConfigured","inputs":[{"name":"symbol","type":"string","indexed":true,"internalType":"string"},{"name":"maxLeverage","type":"uint256","indexed":false,"internalType":"uint256"},{"name":"maxPositionSize","type":"uint256","indexed":false,"internalType":"uint256"},{"name":"maxOpenInterest","type":"uint256","indexed":false,"internalType":"uint256"},{"name":"liquidationThresholdBps","type":"uint256","indexed":false,"internalType":"uint256"}],"anonymous":false},{"type":"event","name":"OpenInterestUpdated","inputs":[{"name":"symbol","type":"string","indexed":true,"internalType":"string"},{"name":"newOpenInterest","type":"uint256","indexed":false,"internalType":"uint256"}],"anonymous":false},{"type":"event","name":"OwnershipTransferred","inputs":[{"name":"previousOwner","type":"address","indexed":true,"internalType":"address"},{"name":"newOwner","type":"address","indexed":true,"internalType":"address"}],"anonymous":false},{"type":"error","name":"OwnableInvalidOwner","inputs":[{"name":"owner","type":"address","internalType":"address"}]},{"type":"error","name":"OwnableUnauthorizedAccount","inputs":[{"name":"account","type":"address","internalType":"address"}]}],"bytecode":{"object":"0x6080806040523461007a5733156100645760008054336001600160a01b03198216811783556040519290916001600160a01b0316907f8be0079c531659141344cd1fd0a4f28419497f9722a3daafe3b4186f6b6457e09080a361105a90816100808239f35b631e4fbdf760e01b815260006004820152602490fd5b600080fdfe6080604081815260048036101561001557600080fd5b600092833560e01c9081634620c2ff1461097957508063623ca9c1146109415780636853db5c146108e05780636a26866a14610887578063715018a61461082d57806377c730ee146107d25780637a329792146107855780638da5cb5b1461075957806397d1f68e146106f8578063adb008a014610612578063b0371e13146103f1578063b0421c2814610378578063b163c8a114610323578063e55e05b7146101515763f2fde38b146100c857600080fd5b3461014d57602036600319011261014d576100e1610a8c565b906100ea610b9a565b6001600160a01b0391821692831561013757505082546001600160a01b0319811683178455167f8be0079c531659141344cd1fd0a4f28419497f9722a3daafe3b4186f6b6457e08380a380f35b51631e4fbdf760e01b8152908101849052602490fd5b8280fd5b503461014d5760c036600319011261014d57803567ffffffffffffffff811161031f576101819036908301610a4a565b9190926024359081151580920361031b5760443593606435956084359360a435956101aa610b9a565b6101b5881515610bc6565b88156102cd57861515806102c2575b1561027f57917f8de96229fc431b1e4f3319d8825d0db3d266d8afba82697685f7b0b3b8da2faa97959391859360809896519161020083610ad5565b8252602082018881528583018c815260608401908882528b8501928a84528851888882376020818a810160018152030190209551151560ff8019885416911617865551600186015551600285015551600384015551910155818351928392833781018a815203902096815194855260208501528301526060820152a280f35b606490602086519162461bcd60e51b8352820152601e60248201527f5269736b4d616e616765723a20496e76616c6964207468726573686f6c6400006044820152fd5b5061271087106101c4565b608490602086519162461bcd60e51b8352820152602260248201527f5269736b4d616e616765723a20496e76616c696420706f736974696f6e2073696044820152617a6560f01b6064820152fd5b8580fd5b8380fd5b5091346103755760203660031901126103755782359067ffffffffffffffff821161037557506103596020938492369101610a4a565b9190828451938492833781016002815203019020549051908152f35b80fd5b50903461014d5761038836610b29565b8151908051945b8581106103de57505060208160a0958101600181520301902060ff8154169260018201549260028301549160038401549301549381519515158652602086015284015260608301526080820152f35b806020809284010151818501520161038f565b50903461014d57608036600319011261014d57813567ffffffffffffffff811161031f576104229036908401610a4a565b9190602435604435906064359284519580828837868181016001815260209889910301902091866104a6896104968c845161045c81610ad5565b608060ff8a541615159283835260018b015495830195865260028b015497830197885260038b01549a606084019b8c520154910152610c12565b8715159081610606575b50610bc6565b5186116105c357818887926104cc948a5193849283378101600281520301902054610c5e565b90511061057057801561052d57906104e391610c81565b036104ec578380f35b5162461bcd60e51b815291820152601a60248201527f5269736b4d616e616765723a2053697a65206d69736d61746368000000000000604482015260649150fd5b835162461bcd60e51b8152808701869052601f60248201527f5269736b4d616e616765723a20496e76616c696420636f6c6c61746572616c006044820152606490fd5b835162461bcd60e51b8152808701869052602760248201527f5269736b4d616e616765723a204d6178206f70656e20696e74657265737420656044820152661e18d95959195960ca1b6064820152608490fd5b865162461bcd60e51b8152808a01899052601f60248201527f5269736b4d616e616765723a20506f736974696f6e20746f6f206c61726765006044820152606490fd5b905051871115386104a0565b503461014d5761062136610aa2565b90919261062c610b9a565b81855184868237602081868101600281520301902054106106bc5750916020917f65f5de45e2f45cd380f117b4176b7b8791554d6bd66dd50bf338954735f1e6c69361068c86518385823785818581016002815203019020918254610c94565b9055845181838237838183810160028152030190205491818651928392833781018781520390209351908152a280f35b606490602086519162461bcd60e51b835282015260166024820152755269736b4d616e616765723a20556e646572666c6f7760501b6044820152fd5b503461014d5760c036600319011261014d57610712610a7d565b9260a4359067ffffffffffffffff821161037557509261073a61075092602095369101610a4a565b9160843590606435906044359060243590610dca565b90519015158152f35b505034610781578160031936011261078157905490516001600160a01b039091168152602090f35b5080fd5b5050346107815760209161079836610b29565b90825182819351925b8381106107be575050849181016002815203019020549051908152f35b8082018701518582015284925086016107a1565b503461014d5760a036600319011261014d576107ec610a7d565b926084359067ffffffffffffffff821161037557509261081461082692602095369101610a4a565b91606435906044359060243590610cc1565b9051908152f35b8334610375578060031936011261037557610846610b9a565b80546001600160a01b03198116825581906001600160a01b03167f8be0079c531659141344cd1fd0a4f28419497f9722a3daafe3b4186f6b6457e08280a380f35b505034610781577f65f5de45e2f45cd380f117b4176b7b8791554d6bd66dd50bf338954735f1e6c660206108ba36610aa2565b6108c2610b9a565b61068c86518385823785818581016002815203019020918254610c5e565b503461014d5760a036600319011261014d576108fa610a8c565b906024359067ffffffffffffffff821161093d5761091a91369101610a4a565b909360843580151503610375575092610750916020946064359260443592610e85565b8480fd5b5050346107815760c03660031901126107815760a4359182151583036103755750610750602092608435606435604435602435610f90565b849391503461031f57602036600319011261031f57823567ffffffffffffffff811161093d5760809160a0956109b460209336908801610a4a565b9490926109c081610ad5565b8281528285820152828782015282606082015201528284519384928337810160018152030190208151916109f383610ad5565b60ff8254161515938484526001830154602085019081526080600285015492848701938452600386015495606088019687520154950194855282519586525160208601525190840152516060830152516080820152f35b9181601f84011215610a785782359167ffffffffffffffff8311610a785760208381860195010111610a7857565b600080fd5b600435908115158203610a7857565b600435906001600160a01b0382168203610a7857565b6040600319820112610a78576004359067ffffffffffffffff8211610a7857610acd91600401610a4a565b909160243590565b60a0810190811067ffffffffffffffff821117610af157604052565b634e487b7160e01b600052604160045260246000fd5b90601f8019910116810190811067ffffffffffffffff821117610af157604052565b6020600319820112610a785767ffffffffffffffff600435818111610a785782602382011215610a78578060040135918211610af15760405192610b77601f8401601f191660200185610b07565b82845260248383010111610a785781600092602460209301838601378301015290565b6000546001600160a01b03163303610bae57565b60405163118cdaa760e01b8152336004820152602490fd5b15610bcd57565b60405162461bcd60e51b815260206004820152601d60248201527f5269736b4d616e616765723a20496e76616c6964206c657665726167650000006044820152606490fd5b15610c1957565b60405162461bcd60e51b815260206004820152601e60248201527f5269736b4d616e616765723a204173736574206e6f7420656e61626c656400006044820152606490fd5b91908201809211610c6b57565b634e487b7160e01b600052601160045260246000fd5b81810292918115918404141715610c6b57565b91908203918211610c6b57565b8115610cab570490565b634e487b7160e01b600052601260045260246000fd5b9491612710926020610d31939682604051938492833781016001815203019020610d2a60405191610cf183610ad5565b6080600460ff83541615159283865260018101546020870152600281015460408701526003810154606087015201549301928352610c12565b5190610c81565b049215610db357610d4682610d4b9394610c81565b610ca1565b81811015610d5f57610d5c91610c94565b90565b60405162461bcd60e51b815260206004820152602660248201527f5269736b4d616e616765723a20496e76616c6964206c69717569646174696f6e60448201526520707269636560d01b6064820152608490fd5b610dc490610d4683610d5c95610c81565b90610c5e565b9395908160c4926020959497604051998a968795633be3987760e11b87528a1515600488015260248701526044860152606485015260a060848501528160a4850152848401376000828201840152601f01601f19168101030181305afa928315610e7957600093610e46575b5015610e4157111590565b101590565b90926020823d8211610e71575b81610e6060209383610b07565b810103126103755750519138610e36565b3d9150610e53565b6040513d6000823e3d90fd5b909291906001600160a01b031615610f4d576040518184823760208183810160018152030190209360405192610eba84610ad5565b60ff8654161580158552600187015490816020870152600288015495604081019687526080600460038b01549a606084019b8c520154910152610f6b578215610f6b578115908115610f61575b50610f5657610f1591610c81565b91518211610f4d576020610f3c938260405193849283378101600281520301902054610c5e565b905110610f4857600190565b600090565b50505050600090565b505050505050600090565b9050811138610f07565b50505050505050600090565b81810392916000138015828513169184121617610c6b57565b909280929460001461101557610fa591610f77565b600160ff1b9381810291906000821286821416610c6b578183051490151715610c6b578115610cab57808414600019831416610c6b57059160008312610fed57505050600090565b8214610c6b576126ac90818102918183041490151715610c6b57612710900490600003101590565b9061101f91610f77565b610fa556fea264697066735822122013a267d5833bd51177adad6f83ffe5ab89d158e394cc50f6c6f272a6a801862b64736f6c63430008140033","linkReferences":{}},"methodIdentifiers":{"assetConfigs(string)":"b0421c28","calculateLiquidationPrice(bool,uint256,uint256,uint256,string)":"77c730ee","checkLiquidation(bool,uint256,uint256,uint256,uint256,string)":"97d1f68e","currentOpenInterest(string)":"7a329792","decreaseOpenInterest(string,uint256)":"adb008a0","getAssetConfig(string)":"4620c2ff","getOpenInterest(string)":"b163c8a1","increaseOpenInterest(string,uint256)":"6a26866a","owner()":"8da5cb5b","renounceOwnership()":"715018a6","setAssetConfig(string,bool,uint256,uint256,uint256,uint256)":"e55e05b7","shouldLiquidate(uint256,uint256,uint256,uint256,uint256,bool)":"623ca9c1","transferOwnership(address)":"f2fde38b","validatePosition(string,uint256,uint256,uint256)":"b0371e13","validateTrade(address,string,uint256,uint256,bool)":"6853db5c"},"id":39}