{"abi":[{"type":"constructor","inputs":[{"name":"_usdc","type":"address","internalType":"address"},{"name":"_vaultPool","type":"address","internalType":"address"},{"name":"_teamWallet","type":"address","internalType":"address"}],"stateMutability":"nonpayable"},{"type":"function","name":"DEFAULT_ADMIN_ROLE","inputs":[],"outputs":[{"name":"","type":"bytes32","internalType":"bytes32"}],"stateMutability":"view"},{"type":"function","name":"SETTLER_ROLE","inputs":[],"outputs":[{"name":"","type":"bytes32","internalType":"bytes32"}],"stateMutability":"view"},{"type":"function","name":"STREAMER_ROLE","inputs":[],"outputs":[{"name":"","type":"bytes32","internalType":"bytes32"}],"stateMutability":"view"},{"type":"function","name":"feeToBufferBps","inputs":[],"outputs":[{"name":"","type":"uint256","internalType":"uint256"}],"stateMutability":"view"},{"type":"function","name":"feeToRelayerBps","inputs":[],"outputs":[{"name":"","type":"uint256","internalType":"uint256"}],"stateMutability":"view"},{"type":"function","name":"feeToTeamBps","inputs":[],"outputs":[{"name":"","type":"uint256","internalType":"uint256"}],"stateMutability":"view"},{"type":"function","name":"getRoleAdmin","inputs":[{"name":"role","type":"bytes32","internalType":"bytes32"}],"outputs":[{"name":"","type":"bytes32","internalType":"bytes32"}],"stateMutability":"view"},{"type":"function","name":"grantRole","inputs":[{"name":"role","type":"bytes32","internalType":"bytes32"},{"name":"account","type":"address","internalType":"address"}],"outputs":[],"stateMutability":"nonpayable"},{"type":"function","name":"hasRole","inputs":[{"name":"role","type":"bytes32","internalType":"bytes32"},{"name":"account","type":"address","internalType":"address"}],"outputs":[{"name":"","type":"bool","internalType":"bool"}],"stateMutability":"view"},{"type":"function","name":"lastStreamAt","inputs":[],"outputs":[{"name":"","type":"uint256","internalType":"uint256"}],"stateMutability":"view"},{"type":"function","name":"renounceRole","inputs":[{"name":"role","type":"bytes32","internalType":"bytes32"},{"name":"callerConfirmation","type":"address","internalType":"address"}],"outputs":[],"stateMutability":"nonpayable"},{"type":"function","name":"revokeRole","inputs":[{"name":"role","type":"bytes32","internalType":"bytes32"},{"name":"account","type":"address","internalType":"address"}],"outputs":[],"stateMutability":"nonpayable"},{"type":"function","name":"settleTrade","inputs":[{"name":"trader","type":"address","internalType":"address"},{"name":"collateral","type":"uint256","internalType":"uint256"},{"name":"pnl","type":"int256","internalType":"int256"},{"name":"tradingFee","type":"uint256","internalType":"uint256"},{"name":"relayer","type":"address","internalType":"address"}],"outputs":[],"stateMutability":"nonpayable"},{"type":"function","name":"streamInterval","inputs":[],"outputs":[{"name":"","type":"uint256","internalType":"uint256"}],"stateMutability":"view"},{"type":"function","name":"streamPortionBps","inputs":[],"outputs":[{"name":"","type":"uint256","internalType":"uint256"}],"stateMutability":"view"},{"type":"function","name":"streamToVault","inputs":[],"outputs":[],"stateMutability":"nonpayable"},{"type":"function","name":"supportsInterface","inputs":[{"name":"interfaceId","type":"bytes4","internalType":"bytes4"}],"outputs":[{"name":"","type":"bool","internalType":"bool"}],"stateMutability":"view"},{"type":"function","name":"teamWallet","inputs":[],"outputs":[{"name":"","type":"address","internalType":"address"}],"stateMutability":"view"},{"type":"function","name":"updateFeeSplit","inputs":[{"name":"relayerBps","type":"uint256","internalType":"uint256"},{"name":"teamBps","type":"uint256","internalType":"uint256"},{"name":"bufferBps","type":"uint256","internalType":"uint256"}],"outputs":[],"stateMutability":"nonpayable"},{"type":"function","name":"updateStreamConfig","inputs":[{"name":"interval","type":"uint256","internalType":"uint256"},{"name":"portionBps","type":"uint256","internalType":"uint256"}],"outputs":[],"stateMutability":"nonpayable"},{"type":"function","name":"updateTeamWallet","inputs":[{"name":"_team","type":"address","internalType":"address"}],"outputs":[],"stateMutability":"nonpayable"},{"type":"function","name":"updateVault","inputs":[{"name":"_vault","type":"address","internalType":"address"}],"outputs":[],"stateMutability":"nonpayable"},{"type":"function","name":"usdc","inputs":[],"outputs":[{"name":"","type":"address","internalType":"contract IERC20"}],"stateMutability":"view"},{"type":"function","name":"vaultPool","inputs":[],"outputs":[{"name":"","type":"address","internalType":"contract IVaultPool"}],"stateMutability":"view"},{"type":"event","name":"FeeSplitUpdated","inputs":[{"name":"relayerBps","type":"uint256","indexed":false,"internalType":"uint256"},{"name":"teamBps","type":"uint256","indexed":false,"internalType":"uint256"},{"name":"bufferBps","type":"uint256","indexed":false,"internalType":"uint256"}],"anonymous":false},{"type":"event","name":"RoleAdminChanged","inputs":[{"name":"role","type":"bytes32","indexed":true,"internalType":"bytes32"},{"name":"previousAdminRole","type":"bytes32","indexed":true,"internalType":"bytes32"},{"name":"newAdminRole","type":"bytes32","indexed":true,"internalType":"bytes32"}],"anonymous":false},{"type":"event","name":"RoleGranted","inputs":[{"name":"role","type":"bytes32","indexed":true,"internalType":"bytes32"},{"name":"account","type":"address","indexed":true,"internalType":"address"},{"name":"sender","type":"address","indexed":true,"internalType":"address"}],"anonymous":false},{"type":"event","name":"RoleRevoked","inputs":[{"name":"role","type":"bytes32","indexed":true,"internalType":"bytes32"},{"name":"account","type":"address","indexed":true,"internalType":"address"},{"name":"sender","type":"address","indexed":true,"internalType":"address"}],"anonymous":false},{"type":"event","name":"Settled","inputs":[{"name":"trader","type":"address","indexed":true,"internalType":"address"},{"name":"pnl","type":"int256","indexed":false,"internalType":"int256"},{"name":"fee","type":"uint256","indexed":false,"internalType":"uint256"},{"name":"paidFromBuffer","type":"uint256","indexed":false,"internalType":"uint256"},{"name":"paidFromPool","type":"uint256","indexed":false,"internalType":"uint256"}],"anonymous":false},{"type":"event","name":"StreamConfigUpdated","inputs":[{"name":"interval","type":"uint256","indexed":false,"internalType":"uint256"},{"name":"portionBps","type":"uint256","indexed":false,"internalType":"uint256"}],"anonymous":false},{"type":"event","name":"StreamedToVault","inputs":[{"name":"amount","type":"uint256","indexed":false,"internalType":"uint256"}],"anonymous":false},{"type":"event","name":"TeamWalletUpdated","inputs":[{"name":"team","type":"address","indexed":false,"internalType":"address"}],"anonymous":false},{"type":"error","name":"AccessControlBadConfirmation","inputs":[]},{"type":"error","name":"AccessControlUnauthorizedAccount","inputs":[{"name":"account","type":"address","internalType":"address"},{"name":"neededRole","type":"bytes32","internalType":"bytes32"}]},{"type":"error","name":"ReentrancyGuardReentrantCall","inputs":[]},{"type":"error","name":"SafeERC20FailedOperation","inputs":[{"name":"token","type":"address","internalType":"address"}]}],"bytecode":{"object":"0x60a034620001fd57601f620015bb38819003918201601f191683019291906001600160401b0384118385101762000202578160609284926040968752833981010312620001fd57620000518162000218565b6200006c83620000646020850162000218565b930162000218565b6001805560006004556109c4600555611d4c6006556107086007556127106009556001600160a01b03918216929091908315620001b9578116918215620001755716918215620001315760805260018060a01b0319908160025416176002556003541617600355620000de336200022d565b50620000ea33620002ad565b50620000f6336200034f565b50516111ae9081620003ed823960805181818161034c0152818161059f015281816105f201528181610622015281816108be0152610d0a0152f35b835162461bcd60e51b815260206004820152601b60248201527f53746162696c69747946756e643a20696e76616c6964207465616d00000000006044820152606490fd5b845162461bcd60e51b815260206004820152601c60248201527f53746162696c69747946756e643a20696e76616c6964207661756c74000000006044820152606490fd5b845162461bcd60e51b815260206004820152601b60248201527f53746162696c69747946756e643a20696e76616c6964205553444300000000006044820152606490fd5b600080fd5b634e487b7160e01b600052604160045260246000fd5b51906001600160a01b0382168203620001fd57565b6001600160a01b031660008181527fad3228b676f7d3cd4284a5443f17f1962b36e491b30a40b2405849e597ba5fb5602052604081205490919060ff16620002a957818052816020526040822081835260205260408220600160ff1982541617905533916000805160206200159b8339815191528180a4600190565b5090565b6001600160a01b031660008181527fa5c179faa98d86951875f38e98a405912d7f90d5dfc4d9d9c0ab0ae0d8aa85a060205260408120549091907f6666bf5bfee463d10a7fc50448047f8a53b7762d7e28fbc5c643182785f3fd3f9060ff166200034a57808352826020526040832082845260205260408320600160ff198254161790556000805160206200159b833981519152339380a4600190565b505090565b6001600160a01b031660008181527f73a0e851d3bf6fc5b7d715a1724e56c8ed39eb00b9b99e8a3f26be26e3bdaa1860205260408120549091907f41d12fe3b2ffe2aea01a3e08ec191d0142900efe396c6cd50b857af5b6f1bdae9060ff166200034a57808352826020526040832082845260205260408320600160ff198254161790556000805160206200159b833981519152339380a460019056fe60806040908082526004918236101561001757600080fd5b600091823560e01c90816301ffc9a714610e36575080630f63cf0a14610e0e578063248a9ca314610de45780632f2ff15d14610dba57806336568abe14610d7557806336c9213d14610d5757806336fddb0714610d395780633e413bee14610cf65780633f84568914610c2457806344731b0614610c065780635992704414610bde5780637445e85c14610ba45780637cb332bb14610aee57806391d1485414610aa857806391f0dc941461083c578063955903231461081e578063984dee3b14610800578063a217fddf146107e6578063c9d6da0e146107ac578063d547741f1461076d578063dd78bc731461074f578063e7563f3f146106bc578063e9d504791461022b5763ec8a7ace1461012d57600080fd5b3461022757806003193601126102275782356024359361014b610eb6565b61271085116101e45761012c821061019757507f0819e5da1e24498d5c234d23f9a1f86fb33bac310c606aaadd05b693e7c3610f9293816007558060095582519182526020820152a180f35b608490602084519162461bcd60e51b8352820152602160248201527f53746162696c69747946756e643a20696e74657276616c20746f6f20736d616c6044820152601b60fa1b6064820152fd5b606490602084519162461bcd60e51b8352820152601e60248201527f53746162696c69747946756e643a20696e76616c696420706f7274696f6e00006044820152fd5b5080fd5b508290346106b85760a03660031901126106b857610247610ea0565b91602435604435916064359360843560018060a01b0380821697888303610509577f6666bf5bfee463d10a7fc50448047f8a53b7762d7e28fbc5c643182785f3fd3f9283600052602093600085528560002033600052855260ff8660002054161561069a57506102b5611155565b828216998a1561065757906102f191612710906102f68c836102d88c5483611027565b049586946102e860055484611027565b04968792611050565b611050565b50811515908161064d575b5061061c575b5050806105e7575b50899586959086891261052857886103269161105d565b8980821061051f5761033791611050565b925b85516370a0823160e01b815230818401527f0000000000000000000000000000000000000000000000000000000000000000928d9187816024818789165afa9081156105155783916104df575b508681106103f857505050509160809796959493917f8e3a27cce6981768f1a3265366bf6726ba6585c3173fa5ed8c905614ae58f94b9993826103e0575b5050505b82519586528501528301526060820152a26001805580f35b82939650906103ef92916110b6565b928a80806103c4565b8093979a50959195949390946104c5575b509061041491611050565b936002541691823b156104c15785516302fdabe960e01b81526001600160a01b03909216908201908152602081018590529091839183919082908490829060400103925af180156104b757610495575b5050907f8e3a27cce6981768f1a3265366bf6726ba6585c3173fa5ed8c905614ae58f94b95608095949392936103c8565b6104a49096959493929661106a565b6104b357909192938789610464565b8780fd5b84513d84823e3d90fd5b8380fd5b8261041493929950846104d7926110b6565b968791610409565b809350888092503d831161050e575b6104f88183611094565b81010312610509578d91518f610386565b600080fd5b503d6104ee565b89513d85823e3d90fd5b50508a92610339565b919250600160ff9995969798991b89146105d45750918795939160809795936105747f8e3a27cce6981768f1a3265366bf6726ba6585c3173fa5ed8c905614ae58f94b9a8d038561105d565b808211156105cb5761058591611050565b905b81610594575b50506103c8565b81929550906105c3917f00000000000000000000000000000000000000000000000000000000000000006110b6565b928a8061058d565b50508a90610587565b634e487b7160e01b8b526011905260248afd5b6106169083600354167f00000000000000000000000000000000000000000000000000000000000000006110b6565b8a61030f565b610646917f00000000000000000000000000000000000000000000000000000000000000006110b6565b8b80610307565b905015158e610301565b855162461bcd60e51b8152808801869052601d60248201527f53746162696c69747946756e643a20696e76616c6964207472616465720000006044820152606490fd5b855163e2517d3f60e01b815233818901526024810191909152604490fd5b8280fd5b5082346106b85760203660031901126106b8576106d7610ea0565b6106df610eb6565b6001600160a01b031691821561070c5750506bffffffffffffffffffffffff60a01b600254161760025580f35b906020606492519162461bcd60e51b8352820152601c60248201527f53746162696c69747946756e643a20696e76616c6964207661756c74000000006044820152fd5b50346102275781600319360112610227576020906006549051908152f35b508290346106b857806003193601126106b8576107a891356107a36001610792610e8a565b938387528660205286200154610f0e565b610fb2565b5080f35b5034610227578160031936011261022757602090517f41d12fe3b2ffe2aea01a3e08ec191d0142900efe396c6cd50b857af5b6f1bdae8152f35b503461022757816003193601126102275751908152602090f35b50346102275781600319360112610227576020906008549051908152f35b5082346106b857826003193601126106b85760209250549051908152f35b5091346102275781600319360112610227577f41d12fe3b2ffe2aea01a3e08ec191d0142900efe396c6cd50b857af5b6f1bdae90818352602091838352848420338552835260ff858520541615610a8b5750610896611155565b6108a56008546007549061105d565b4210610a4a5783516370a0823160e01b815230818301527f000000000000000000000000000000000000000000000000000000000000000091906001600160a01b039084816024818588165afa908115610a40578691610a0f575b5080156109ce5761271061091a61092c9260095490611027565b048094426008558360025416906110b6565b6002541690813b156109ca578260248692838951958694859363ad37159760e01b85528401525af180156109c05761098f575b507f97b1bedaea7031b8283e20b8f0903fc966e3616868e164118e4f56fe73aa0509929351908152a16001805580f35b926109ba7f97b1bedaea7031b8283e20b8f0903fc966e3616868e164118e4f56fe73aa05099461106a565b9261095f565b85513d86823e3d90fd5b8480fd5b60648386808a519262461bcd60e51b845283015260248201527f53746162696c69747946756e643a206e6f7468696e6720746f2073747265616d6044820152fd5b90508481813d8311610a39575b610a268183611094565b81010312610a35575138610900565b8580fd5b503d610a1c565b87513d88823e3d90fd5b60649184519162461bcd60e51b8352820152601e60248201527f53746162696c69747946756e643a2073747265616d20636f6f6c646f776e00006044820152fd5b6044925084519163e2517d3f60e01b835233908301526024820152fd5b5082346106b857816003193601126106b8578160209360ff92610ac9610e8a565b903582528186528282206001600160a01b039091168252855220549151911615158152f35b508290346106b85760203660031901126106b857610b0a610ea0565b610b12610eb6565b6001600160a01b0316918215610b625750600380546001600160a01b03191683179055519081527ff6215f245bfd24e51265c56ef650fdd856aa4ece6221ee1ef395bbe0a555801090602090a180f35b6020606492519162461bcd60e51b8352820152601b60248201527f53746162696c69747946756e643a20696e76616c6964207465616d00000000006044820152fd5b5034610227578160031936011261022757602090517f6666bf5bfee463d10a7fc50448047f8a53b7762d7e28fbc5c643182785f3fd3f8152f35b503461022757816003193601126102275760035490516001600160a01b039091168152602090f35b50346102275781600319360112610227576020906005549051908152f35b5082346106b85760603660031901126106b85780359160243560443592610c49610eb6565b612710610c5f85610c5a858961105d565b61105d565b03610ca7579160609391857f7a91e3265b1469f01a44971ff760e073f1d8a3c0d9459bb619329319114c7a3e969455806005558260065581519384526020840152820152a180f35b608490602084519162461bcd60e51b83528201526024808201527f53746162696c69747946756e643a2073706c6974206d75737420746f74616c206044820152633130302560e01b6064820152fd5b5034610227578160031936011261022757517f00000000000000000000000000000000000000000000000000000000000000006001600160a01b03168152602090f35b50346102275781600319360112610227576020906009549051908152f35b50346102275781600319360112610227576020906007549051908152f35b5034610227578060031936011261022757610d8e610e8a565b90336001600160a01b03831603610dab57506107a8919235610fb2565b5163334bd91960e11b81528390fd5b508290346106b857806003193601126106b8576107a89135610ddf6001610792610e8a565b610f34565b5082346106b85760203660031901126106b857816020936001923581528085522001549051908152f35b503461022757816003193601126102275760025490516001600160a01b039091168152602090f35b839085346106b85760203660031901126106b8573563ffffffff60e01b81168091036106b85760209250637965db0b60e01b8114908115610e79575b5015158152f35b6301ffc9a760e01b14905083610e72565b602435906001600160a01b038216820361050957565b600435906001600160a01b038216820361050957565b3360009081527fad3228b676f7d3cd4284a5443f17f1962b36e491b30a40b2405849e597ba5fb5602052604081205460ff1615610ef05750565b6044906040519063e2517d3f60e01b82523360048301526024820152fd5b80600052600060205260406000203360005260205260ff6040600020541615610ef05750565b9060009180835282602052604083209160018060a01b03169182845260205260ff60408420541615600014610fad57808352826020526040832082845260205260408320600160ff198254161790557f2f8788117e7eff1d82e926ec794901d17c78024a50270940304540a733656f0d339380a4600190565b505090565b9060009180835282602052604083209160018060a01b03169182845260205260ff604084205416600014610fad5780835282602052604083208284526020526040832060ff1981541690557ff6391f5c32d9c69d2a47ea670b442974b53935d1edc7fd64eb21e047a839171b339380a4600190565b8181029291811591840414171561103a57565b634e487b7160e01b600052601160045260246000fd5b9190820391821161103a57565b9190820180921161103a57565b67ffffffffffffffff811161107e57604052565b634e487b7160e01b600052604160045260246000fd5b90601f8019910116810190811067ffffffffffffffff82111761107e57604052565b60405163a9059cbb60e01b60208083019182526001600160a01b0394909416602483015260448083019590955293815290926000916110f6606482611094565b519082855af115611149576000513d61114057506001600160a01b0381163b155b61111e5750565b604051635274afe760e01b81526001600160a01b039091166004820152602490fd5b60011415611117565b6040513d6000823e3d90fd5b600260015414611166576002600155565b604051633ee5aeb560e01b8152600490fdfea2646970667358221220d5f3d60bad406f2506324d401f459da8eb7f93794a7eccf093e4bd82db4cc80064736f6c634300081400332f8788117e7eff1d82e926ec794901d17c78024a50270940304540a733656f0d","linkReferences":{}},"methodIdentifiers":{"DEFAULT_ADMIN_ROLE()":"a217fddf","SETTLER_ROLE()":"7445e85c","STREAMER_ROLE()":"c9d6da0e","feeToBufferBps()":"dd78bc73","feeToRelayerBps()":"95590323","feeToTeamBps()":"44731b06","getRoleAdmin(bytes32)":"248a9ca3","grantRole(bytes32,address)":"2f2ff15d","hasRole(bytes32,address)":"91d14854","lastStreamAt()":"984dee3b","renounceRole(bytes32,address)":"36568abe","revokeRole(bytes32,address)":"d547741f","settleTrade(address,uint256,int256,uint256,address)":"e9d50479","streamInterval()":"36c9213d","streamPortionBps()":"36fddb07","streamToVault()":"91f0dc94","supportsInterface(bytes4)":"01ffc9a7","teamWallet()":"59927044","updateFeeSplit(uint256,uint256,uint256)":"3f845689","updateStreamConfig(uint256,uint256)":"ec8a7ace","updateTeamWallet(address)":"7cb332bb","updateVault(address)":"e7563f3f","usdc()":"3e413bee","vaultPool()":"0f63cf0a"},"id":48}