{"abi":[{"type":"constructor","inputs":[{"name":"_usdc","type":"address","internalType":"address"},{"name":"_riskManager","type":"address","internalType":"address"},{"name":"_positionManager","type":"address","internalType":"address"},{"name":"_stabilityFund","type":"address","internalType":"address"},{"name":"_backendSigner","type":"address","internalType":"address"}],"stateMutability":"nonpayable"},{"type":"function","name":"BACKEND_SIGNER_ROLE","inputs":[],"outputs":[{"name":"","type":"bytes32","internalType":"bytes32"}],"stateMutability":"view"},{"type":"function","name":"DEFAULT_ADMIN_ROLE","inputs":[],"outputs":[{"name":"","type":"bytes32","internalType":"bytes32"}],"stateMutability":"view"},{"type":"function","name":"KEEPER_ROLE","inputs":[],"outputs":[{"name":"","type":"bytes32","internalType":"bytes32"}],"stateMutability":"view"},{"type":"function","name":"MAX_SESSION_DURATION","inputs":[],"outputs":[{"name":"","type":"uint256","internalType":"uint256"}],"stateMutability":"view"},{"type":"function","name":"PRICE_VALIDITY_WINDOW","inputs":[],"outputs":[{"name":"","type":"uint256","internalType":"uint256"}],"stateMutability":"view"},{"type":"function","name":"authorizeSessionKey","inputs":[{"name":"sessionKeyAddress","type":"address","internalType":"address"},{"name":"duration","type":"uint256","internalType":"uint256"},{"name":"","type":"bytes","internalType":"bytes"}],"outputs":[],"stateMutability":"nonpayable"},{"type":"function","name":"executeTapToTrade","inputs":[{"name":"trader","type":"address","internalType":"address"},{"name":"symbol","type":"string","internalType":"string"},{"name":"isLong","type":"bool","internalType":"bool"},{"name":"collateral","type":"uint256","internalType":"uint256"},{"name":"leverage","type":"uint256","internalType":"uint256"},{"name":"signedPrice","type":"tuple","internalType":"struct TapToTradeExecutor.SignedPrice","components":[{"name":"symbol","type":"string","internalType":"string"},{"name":"price","type":"uint256","internalType":"uint256"},{"name":"timestamp","type":"uint256","internalType":"uint256"},{"name":"signature","type":"bytes","internalType":"bytes"}]},{"name":"userSignature","type":"bytes","internalType":"bytes"}],"outputs":[{"name":"positionId","type":"uint256","internalType":"uint256"}],"stateMutability":"nonpayable"},{"type":"function","name":"executeTapToTradeByKeeper","inputs":[{"name":"trader","type":"address","internalType":"address"},{"name":"symbol","type":"string","internalType":"string"},{"name":"isLong","type":"bool","internalType":"bool"},{"name":"collateral","type":"uint256","internalType":"uint256"},{"name":"leverage","type":"uint256","internalType":"uint256"},{"name":"signedPrice","type":"tuple","internalType":"struct TapToTradeExecutor.SignedPrice","components":[{"name":"symbol","type":"string","internalType":"string"},{"name":"price","type":"uint256","internalType":"uint256"},{"name":"timestamp","type":"uint256","internalType":"uint256"},{"name":"signature","type":"bytes","internalType":"bytes"}]}],"outputs":[{"name":"positionId","type":"uint256","internalType":"uint256"}],"stateMutability":"nonpayable"},{"type":"function","name":"getRoleAdmin","inputs":[{"name":"role","type":"bytes32","internalType":"bytes32"}],"outputs":[{"name":"","type":"bytes32","internalType":"bytes32"}],"stateMutability":"view"},{"type":"function","name":"grantRole","inputs":[{"name":"role","type":"bytes32","internalType":"bytes32"},{"name":"account","type":"address","internalType":"address"}],"outputs":[],"stateMutability":"nonpayable"},{"type":"function","name":"hasRole","inputs":[{"name":"role","type":"bytes32","internalType":"bytes32"},{"name":"account","type":"address","internalType":"address"}],"outputs":[{"name":"","type":"bool","internalType":"bool"}],"stateMutability":"view"},{"type":"function","name":"isSessionKeyValid","inputs":[{"name":"trader","type":"address","internalType":"address"},{"name":"sessionKeyAddress","type":"address","internalType":"address"}],"outputs":[{"name":"","type":"bool","internalType":"bool"}],"stateMutability":"view"},{"type":"function","name":"metaNonces","inputs":[{"name":"","type":"address","internalType":"address"}],"outputs":[{"name":"","type":"uint256","internalType":"uint256"}],"stateMutability":"view"},{"type":"function","name":"positionManager","inputs":[],"outputs":[{"name":"","type":"address","internalType":"contract IPositionManagerTT"}],"stateMutability":"view"},{"type":"function","name":"renounceRole","inputs":[{"name":"role","type":"bytes32","internalType":"bytes32"},{"name":"callerConfirmation","type":"address","internalType":"address"}],"outputs":[],"stateMutability":"nonpayable"},{"type":"function","name":"revokeRole","inputs":[{"name":"role","type":"bytes32","internalType":"bytes32"},{"name":"account","type":"address","internalType":"address"}],"outputs":[],"stateMutability":"nonpayable"},{"type":"function","name":"revokeSessionKey","inputs":[{"name":"sessionKeyAddress","type":"address","internalType":"address"}],"outputs":[],"stateMutability":"nonpayable"},{"type":"function","name":"riskManager","inputs":[],"outputs":[{"name":"","type":"address","internalType":"contract IRiskManagerTT"}],"stateMutability":"view"},{"type":"function","name":"sessionKeys","inputs":[{"name":"","type":"address","internalType":"address"},{"name":"","type":"address","internalType":"address"}],"outputs":[{"name":"keyAddress","type":"address","internalType":"address"},{"name":"expiresAt","type":"uint256","internalType":"uint256"},{"name":"isActive","type":"bool","internalType":"bool"}],"stateMutability":"view"},{"type":"function","name":"stabilityFund","inputs":[],"outputs":[{"name":"","type":"address","internalType":"contract IStabilityFundTT"}],"stateMutability":"view"},{"type":"function","name":"supportsInterface","inputs":[{"name":"interfaceId","type":"bytes4","internalType":"bytes4"}],"outputs":[{"name":"","type":"bool","internalType":"bool"}],"stateMutability":"view"},{"type":"function","name":"tradingFeeBps","inputs":[],"outputs":[{"name":"","type":"uint256","internalType":"uint256"}],"stateMutability":"view"},{"type":"function","name":"updateFees","inputs":[{"name":"_tradingFeeBps","type":"uint256","internalType":"uint256"}],"outputs":[],"stateMutability":"nonpayable"},{"type":"function","name":"updateRiskManager","inputs":[{"name":"_riskManager","type":"address","internalType":"address"}],"outputs":[],"stateMutability":"nonpayable"},{"type":"function","name":"usdc","inputs":[],"outputs":[{"name":"","type":"address","internalType":"contract IERC20"}],"stateMutability":"view"},{"type":"event","name":"FeesUpdated","inputs":[{"name":"tradingFeeBps","type":"uint256","indexed":false,"internalType":"uint256"}],"anonymous":false},{"type":"event","name":"MetaTransactionExecuted","inputs":[{"name":"userAddress","type":"address","indexed":true,"internalType":"address"},{"name":"relayerAddress","type":"address","indexed":true,"internalType":"address"},{"name":"nonce","type":"uint256","indexed":false,"internalType":"uint256"}],"anonymous":false},{"type":"event","name":"RoleAdminChanged","inputs":[{"name":"role","type":"bytes32","indexed":true,"internalType":"bytes32"},{"name":"previousAdminRole","type":"bytes32","indexed":true,"internalType":"bytes32"},{"name":"newAdminRole","type":"bytes32","indexed":true,"internalType":"bytes32"}],"anonymous":false},{"type":"event","name":"RoleGranted","inputs":[{"name":"role","type":"bytes32","indexed":true,"internalType":"bytes32"},{"name":"account","type":"address","indexed":true,"internalType":"address"},{"name":"sender","type":"address","indexed":true,"internalType":"address"}],"anonymous":false},{"type":"event","name":"RoleRevoked","inputs":[{"name":"role","type":"bytes32","indexed":true,"internalType":"bytes32"},{"name":"account","type":"address","indexed":true,"internalType":"address"},{"name":"sender","type":"address","indexed":true,"internalType":"address"}],"anonymous":false},{"type":"event","name":"SessionKeyAuthorized","inputs":[{"name":"trader","type":"address","indexed":true,"internalType":"address"},{"name":"sessionKey","type":"address","indexed":true,"internalType":"address"},{"name":"expiresAt","type":"uint256","indexed":false,"internalType":"uint256"}],"anonymous":false},{"type":"event","name":"SessionKeyRevoked","inputs":[{"name":"trader","type":"address","indexed":true,"internalType":"address"},{"name":"sessionKey","type":"address","indexed":true,"internalType":"address"}],"anonymous":false},{"type":"event","name":"TapToTradeOrderExecuted","inputs":[{"name":"positionId","type":"uint256","indexed":true,"internalType":"uint256"},{"name":"trader","type":"address","indexed":true,"internalType":"address"},{"name":"symbol","type":"string","indexed":false,"internalType":"string"},{"name":"isLong","type":"bool","indexed":false,"internalType":"bool"},{"name":"collateral","type":"uint256","indexed":false,"internalType":"uint256"},{"name":"leverage","type":"uint256","indexed":false,"internalType":"uint256"},{"name":"price","type":"uint256","indexed":false,"internalType":"uint256"},{"name":"signer","type":"address","indexed":true,"internalType":"address"}],"anonymous":false},{"type":"error","name":"AccessControlBadConfirmation","inputs":[]},{"type":"error","name":"AccessControlUnauthorizedAccount","inputs":[{"name":"account","type":"address","internalType":"address"},{"name":"neededRole","type":"bytes32","internalType":"bytes32"}]},{"type":"error","name":"ECDSAInvalidSignature","inputs":[]},{"type":"error","name":"ECDSAInvalidSignatureLength","inputs":[{"name":"length","type":"uint256","internalType":"uint256"}]},{"type":"error","name":"ECDSAInvalidSignatureS","inputs":[{"name":"s","type":"bytes32","internalType":"bytes32"}]},{"type":"error","name":"ReentrancyGuardReentrantCall","inputs":[]}],"bytecode":{"object":"0x60a034620002c657601f62001e0238819003918201601f1916830191906001600160401b03831184841017620002cb578160a09285926040958652833981010312620002c6576200005082620002e1565b9160209262000061848301620002e1565b916200006f848201620002e1565b906200008c60806200008460608401620002e1565b9201620002e1565b6001805560058055936001600160a01b039384169081156200028457841692831562000230578416918215620001d8578416938415620001825785161562000133576200010d95965060805260018060a01b03199182600254161760025581600354161760035560045416176004556200010633620002f6565b5062000376565b50516119c9908162000419823960805181818161056901528181610ae70152610e0d0152f35b855162461bcd60e51b815260048101889052602260248201527f546170546f54726164654578656375746f723a20696e76616c6964207369676e60448201526132b960f11b6064820152608490fd5b865162461bcd60e51b815260048101899052602960248201527f546170546f54726164654578656375746f723a20696e76616c696420537461626044820152681a5b1a5d1e519d5b9960ba1b6064820152608490fd5b865162461bcd60e51b815260048101899052602b60248201527f546170546f54726164654578656375746f723a20696e76616c696420506f736960448201526a3a34b7b726b0b730b3b2b960a91b6064820152608490fd5b865162461bcd60e51b815260048101899052602760248201527f546170546f54726164654578656375746f723a20696e76616c6964205269736b60448201526626b0b730b3b2b960c91b6064820152608490fd5b60648888519062461bcd60e51b825280600483015260248201527f546170546f54726164654578656375746f723a20696e76616c696420555344436044820152fd5b600080fd5b634e487b7160e01b600052604160045260246000fd5b51906001600160a01b0382168203620002c657565b6001600160a01b031660008181527fad3228b676f7d3cd4284a5443f17f1962b36e491b30a40b2405849e597ba5fb5602052604081205490919060ff166200037257818052816020526040822081835260205260408220600160ff19825416179055339160008051602062001de28339815191528180a4600190565b5090565b6001600160a01b031660008181527f92731b430a99d226833495b5b5a9eee62a15e2a9df1b0a790bc8afce8b03780660205260408120549091907f9c6721068556a3c372f1c2ef739a54f29e29d287d6ef1e7b26a65200f38e6fb09060ff166200041357808352826020526040832082845260205260408320600160ff1982541617905560008051602062001de2833981519152339380a4600190565b50509056fe608080604052600436101561001357600080fd5b600090813560e01c90816301ffc9a71461109d575080631e6c63fe14610c02578063248a9ca314610bd65780632f2ff15d14610b99578063364bc15a14610b5e57806336568abe14610b165780633e413bee14610ad15780634784266314610aa857806351d9f3ec14610a0b57806378dacee114610970578063791b98bc1461094757806381e9c8d11461091057806384f4fc6a1461084757806391d14854146107fc578063924cca9a146107de57806396ade1f91461076e5780639c3a94cf14610424578063a217fddf14610408578063a60265fe146103df578063b54496b0146103c2578063b81d90fc14610208578063cd8cd4ad146101eb578063d547741f146101aa578063d97ef2b31461016f5763ef7994651461013457600080fd5b3461016c57602036600319011261016c576020906040906001600160a01b0361015b6110f2565b168152600783522054604051908152f35b80fd5b503461016c578060031936011261016c5760206040517f9c6721068556a3c372f1c2ef739a54f29e29d287d6ef1e7b26a65200f38e6fb08152f35b503461016c57604036600319011261016c576101e76004356101ca611108565b90808452836020526101e26001604086200154611195565b611239565b5080f35b503461016c578060031936011261016c576020604051611c208152f35b503461016c57606036600319011261016c576102226110f2565b6024359060443567ffffffffffffffff81116103be5761024690369060040161111e565b5050610250611339565b6001600160a01b03908116918215610379578015158061036d575b1561031c576102e991600261028083426112ae565b6040519061028d826112fb565b868252602082019081526040820193600185523389526006602052604089208860005260205260406000209251166001600160601b0360a01b835416178255516001820155019051151560ff80198354169116179055426112ae565b6040519081527fbe3b303cdddf6e290620263440af91da6a4d135c2a3ceb1673323b777cea932060203392a36001805580f35b60405162461bcd60e51b8152602060048201526024808201527f546170546f54726164654578656375746f723a20696e76616c696420647572616044820152633a34b7b760e11b6064820152608490fd5b50611c2081111561026b565b60405162461bcd60e51b815260206004820152601f60248201527f546170546f54726164654578656375746f723a20696e76616c6964206b6579006044820152606490fd5b8380fd5b503461016c578060031936011261016c57602060405161012c8152f35b503461016c578060031936011261016c576004546040516001600160a01b039091168152602090f35b503461016c578060031936011261016c57602090604051908152f35b503461016c576003199060c03683011261016c576104406110f2565b67ffffffffffffffff926024358481116103be5761046290369060040161111e565b909161046c61114c565b9560a4351161076a5760809060a435360301126103be573360009081527f0363fc6b1c9d3a5e0ab0c2ddc08deb0f30108829db06e84f370d2858ffe78c4660205260409020547ffc8737ab85eb45125971625a9ebdb75cc78e01d5c1fa80c4c6e5203f47bc4fab9060ff161561074c57506104e5611339565b6104f360a4356004016117a2565b6105058560643560843584868861167f565b620186a061052361051a60843560643561141b565b6005549061141b565b600480546040516323b872dd60e01b81526001600160a01b03888116938201939093529082166024820152606480356044830152939092049692602091839190829086907f0000000000000000000000000000000000000000000000000000000000000000165af19081156106d557906105a491839161071d575b50611446565b60018060a01b0360035416946020604051809763c286db6960e01b82528185816105e48d8b8d602460a4350135928d6084359360643593600489016114bf565b03925af19586156106d55782966106e4575b506004546001600160a01b031690813b156106e05760405163e9d5047960e01b81526001600160a01b038716600482015260648035602483015260006044830152810191909152336084820152908290829060a490829084905af180156106d5576106c1575b505060405160209533946001600160a01b03169386937fe38902822f38ae04aa550fdb2ad227e4eb26d897ee03aebfd856262b5a5e0b13939283926106b29260a4356024013592608435926064359290876114fd565b0390a460018055604051908152f35b6106cb82916112d1565b61016c578061065c565b6040513d84823e3d90fd5b8280fd5b9095506020813d602011610715575b8161070060209383611317565b81010312610710575194386105f6565b600080fd5b3d91506106f3565b61073f915060203d602011610745575b6107378183611317565b81019061142e565b3861059e565b503d61072d565b6044906040519063e2517d3f60e01b82523360048301526024820152fd5b8480fd5b503461016c57604036600319011261016c5760609061078b6110f2565b610793611108565b90604060018060a01b039384809316815260066020522091166000526020526040600020908154169060ff600260018301549201541690604051928352602083015215156040820152f35b503461016c578060031936011261016c576020600554604051908152f35b503461016c57604036600319011261016c576040610818611108565b91600435815280602052209060018060a01b0316600052602052602060ff604060002054166040519015158152f35b503461016c57602036600319011261016c576108616110f2565b610869611339565b3382526006602052604082209060018060a01b031690816000526020526002604060002001805460ff8116156108cb5760ff19169055337f744157ccffbd293a2e8644928cd7d23d650f869b88f72d7bfea8041b76ca6bec8380a36001805580f35b60405162461bcd60e51b815260206004820152601e60248201527f546170546f54726164654578656375746f723a206e6f742061637469766500006044820152606490fd5b503461016c57604036600319011261016c57602061093d61092f6110f2565b610937611108565b9061135c565b6040519015158152f35b503461016c578060031936011261016c576003546040516001600160a01b039091168152602090f35b503461016c57602036600319011261016c5760043561098d61115b565b606481116109c7576020817f9fe6eeb0f0541c644a56c67efeb872dbadd803a60b909d7dde1b35a3fe230b0e92600555604051908152a180f35b606460405162461bcd60e51b815260206004820152602060248201527f546170546f54726164654578656375746f723a2066656520746f6f20686967686044820152fd5b503461016c57602036600319011261016c57610a256110f2565b610a2d61115b565b6001600160a01b03168015610a52576001600160601b0360a01b600254161760025580f35b60405162461bcd60e51b815260206004820152602860248201527f546170546f54726164654578656375746f723a20696e76616c6964207269736b6044820152671036b0b730b3b2b960c11b6064820152608490fd5b503461016c578060031936011261016c576002546040516001600160a01b039091168152602090f35b503461016c578060031936011261016c576040517f00000000000000000000000000000000000000000000000000000000000000006001600160a01b03168152602090f35b503461016c57604036600319011261016c57610b30611108565b336001600160a01b03821603610b4c576101e790600435611239565b60405163334bd91960e11b8152600490fd5b503461016c578060031936011261016c5760206040517ffc8737ab85eb45125971625a9ebdb75cc78e01d5c1fa80c4c6e5203f47bc4fab8152f35b503461016c57604036600319011261016c576101e7600435610bb9611108565b9080845283602052610bd16001604086200154611195565b6111bb565b503461016c57602036600319011261016c57600160406020926004358152808452200154604051908152f35b503461016c576003199060e03683011261016c57610c1e6110f2565b906024359267ffffffffffffffff938481116106e057610c4290369060040161111e565b939091610c4d61114c565b908660a4351161076a5760809060a435360301126103be5760c4359586116103be57610d46610d40610c88610d4f969798369060040161111e565b9190610c92611339565b60018060a01b038616895260076020526040892054610d0760a98c6040519384916001600160601b03198c60601b166020840152808d60348501378201908a151560f81b60348301526064356035830152608435605583015260758201523060601b6095820152036089810184520182611317565b602081519101207f19457468657265756d205369676e6564204d6573736167653a0a3332000000008a52601c52603c89209236916113d4565b9061152e565b909591956115fa565b6001600160a01b0384811694908316851490811561108c575b5015611029576001600160a01b038216855260076020526040852080546000198114611015576001019055610da160a4356004016117a2565b610db38160643560843589878761167f565b620186a0610dc861051a60843560643561141b565b600480546040516323b872dd60e01b81526001600160a01b03878116938201939093529082166024820152606480356044830152939092049260209183919082908b907f0000000000000000000000000000000000000000000000000000000000000000165af190811561100a57879291610e4991849161071d5750611446565b6020610e8960018060a01b03600354168a6040519a8b8094819363c286db6960e01b83528c8c8c602460a4350135936084359360643593600489016114bf565b03925af19687156106d5578297610fd2575b506004546001600160a01b031690813b156106e05760405163e9d5047960e01b81526001600160a01b038616600482015260648035602483015260006044830152810191909152336084820152908290829060a490829084905af180156106d557610fc3575b506001600160a01b038316815260076020526040812054600019810191908211610faf57509585926106b27fe38902822f38ae04aa550fdb2ad227e4eb26d897ee03aebfd856262b5a5e0b139360209960405190815233907f03a8e3abe17734f998ec7aacc8db66f8ab07e8096a306018130db6d465f0da748c60018060a01b03871692a36040516001600160a01b03909316969293849360a43560240135926084359260643592876114fd565b634e487b7160e01b81526011600452602490fd5b610fcc906112d1565b38610f01565b9096506020813d602011611002575b81610fee60209383611317565b81010312610ffe57519538610e9b565b5080fd5b3d9150610fe1565b6040513d89823e3d90fd5b634e487b7160e01b87526011600452602487fd5b60405162461bcd60e51b815260206004820152603560248201527f546170546f54726164654578656375746f723a20696e76616c69642075736572604482015274206f722073657373696f6e207369676e617475726560581b6064820152608490fd5b61109791508361135c565b38610d68565b905034610ffe576020366003190112610ffe5760043563ffffffff60e01b81168091036106e05760209250637965db0b60e01b81149081156110e1575b5015158152f35b6301ffc9a760e01b149050386110da565b600435906001600160a01b038216820361071057565b602435906001600160a01b038216820361071057565b9181601f840112156107105782359167ffffffffffffffff8311610710576020838186019501011161071057565b60443590811515820361071057565b3360009081527fad3228b676f7d3cd4284a5443f17f1962b36e491b30a40b2405849e597ba5fb5602052604081205460ff161561074c5750565b80600052600060205260406000203360005260205260ff604060002054161561074c5750565b9060009180835282602052604083209160018060a01b03169182845260205260ff6040842054161560001461123457808352826020526040832082845260205260408320600160ff198254161790557f2f8788117e7eff1d82e926ec794901d17c78024a50270940304540a733656f0d339380a4600190565b505090565b9060009180835282602052604083209160018060a01b03169182845260205260ff6040842054166000146112345780835282602052604083208284526020526040832060ff1981541690557ff6391f5c32d9c69d2a47ea670b442974b53935d1edc7fd64eb21e047a839171b339380a4600190565b919082018092116112bb57565b634e487b7160e01b600052601160045260246000fd5b67ffffffffffffffff81116112e557604052565b634e487b7160e01b600052604160045260246000fd5b6060810190811067ffffffffffffffff8211176112e557604052565b90601f8019910116810190811067ffffffffffffffff8211176112e557604052565b60026001541461134a576002600155565b604051633ee5aeb560e01b8152600490fd5b9060409160018060a01b03809116600052600660205280836000209216918260005260205282600020835191611391836112fb565b8154169182815260ff600260018401549384602085015201541615159485910152836113c9575b50826113c357505090565b14919050565b4211159250386113b8565b92919267ffffffffffffffff82116112e557604051916113fe601f8201601f191660200184611317565b829481845281830111610710578281602093846000960137010152565b818102929181159184041417156112bb57565b90816020910312610710575180151581036107105790565b1561144d57565b60405162461bcd60e51b815260206004820152602360248201527f546170546f54726164654578656375746f723a207472616e73666572206661696044820152621b195960ea1b6064820152608490fd5b908060209392818452848401376000828201840152601f01601f1916010190565b93979695929160a095926114e792600180891b0316865260c0602087015260c086019161149e565b9615156040840152606083015260808201520152565b9296959491608094916115189160a0865260a086019161149e565b9615156020840152604083015260608201520152565b815191906041830361155f5761155892506020820151906060604084015193015160001a9061156a565b9192909190565b505060009160029190565b91907f7fffffffffffffffffffffffffffffff5d576e7357a4501ddfe92f46681b20a084116115ee57926020929160ff608095604051948552168484015260408301526060820152600092839182805260015afa156115e25780516001600160a01b038116156115d957918190565b50809160019190565b604051903d90823e3d90fd5b50505060009160039190565b6004811015611669578061160c575050565b600181036116265760405163f645eedf60e01b8152600490fd5b600281036116475760405163fce698f760e01b815260048101839052602490fd5b6003146116515750565b602490604051906335e2f38360e21b82526004820152fd5b634e487b7160e01b600052602160045260246000fd5b600254604051631a14f6d760e21b81526001600160a01b03928316600482015260a06024820152966020968896929093169486948594916116c59160a48701919061149e565b92604485015260648401521515608483015203915afa90811561176357600091611745575b50156116f257565b60405162461bcd60e51b815260206004820152602560248201527f546170546f54726164654578656375746f723a2076616c69646174696f6e2066604482015264185a5b195960da1b6064820152608490fd5b61175d915060203d8111610745576107378183611317565b386116ea565b6040513d6000823e3d90fd5b903590601e1981360301821215610710570180359067ffffffffffffffff82116107105760200191813603831361071057565b6040808201359161012c83018084116112bb574211611945574283116118f15781816118596118506117d68360ff9661176f565b976118076060875180938c60209d8e84019788378201908d808b0135908301528a8201520388810184520182611317565b519020926000937f19457468657265756d205369676e6564204d6573736167653a0a3332000000008552601c52610d40611849603c862092606081019061176f565b36916113d4565b909291926115fa565b7f9c6721068556a3c372f1c2ef739a54f29e29d287d6ef1e7b26a65200f38e6fb082528186528282206001600160a01b03909116825285522054161561189d575050565b60849250519062461bcd60e51b82526004820152602860248201527f546170546f54726164654578656375746f723a20696e76616c69642070726963604482015267329039b4b3b732b960c11b6064820152fd5b815162461bcd60e51b815260206004820152602760248201527f546170546f54726164654578656375746f723a2074696d657374616d7020696e6044820152662066757475726560c81b6064820152608490fd5b815162461bcd60e51b815260206004820152602160248201527f546170546f54726164654578656375746f723a207072696365206578706972656044820152601960fa1b6064820152608490fdfea264697066735822122002441fc7e63269017cb56383077b8196ca0a6d05f2cd83417264e41d498ceb6664736f6c634300081400332f8788117e7eff1d82e926ec794901d17c78024a50270940304540a733656f0d","linkReferences":{}},"methodIdentifiers":{"BACKEND_SIGNER_ROLE()":"d97ef2b3","DEFAULT_ADMIN_ROLE()":"a217fddf","KEEPER_ROLE()":"364bc15a","MAX_SESSION_DURATION()":"cd8cd4ad","PRICE_VALIDITY_WINDOW()":"b54496b0","authorizeSessionKey(address,uint256,bytes)":"b81d90fc","executeTapToTrade(address,string,bool,uint256,uint256,(string,uint256,uint256,bytes),bytes)":"1e6c63fe","executeTapToTradeByKeeper(address,string,bool,uint256,uint256,(string,uint256,uint256,bytes))":"9c3a94cf","getRoleAdmin(bytes32)":"248a9ca3","grantRole(bytes32,address)":"2f2ff15d","hasRole(bytes32,address)":"91d14854","isSessionKeyValid(address,address)":"81e9c8d1","metaNonces(address)":"ef799465","positionManager()":"791b98bc","renounceRole(bytes32,address)":"36568abe","revokeRole(bytes32,address)":"d547741f","revokeSessionKey(address)":"84f4fc6a","riskManager()":"47842663","sessionKeys(address,address)":"96ade1f9","stabilityFund()":"a60265fe","supportsInterface(bytes4)":"01ffc9a7","tradingFeeBps()":"924cca9a","updateFees(uint256)":"78dacee1","updateRiskManager(address)":"51d9f3ec","usdc()":"3e413bee"},"id":47}