{"abi":[{"type":"constructor","inputs":[{"name":"_usdc","type":"address","internalType":"address"}],"stateMutability":"nonpayable"},{"type":"function","name":"DEFAULT_ADMIN_ROLE","inputs":[],"outputs":[{"name":"","type":"bytes32","internalType":"bytes32"}],"stateMutability":"view"},{"type":"function","name":"SETTLER_ROLE","inputs":[],"outputs":[{"name":"","type":"bytes32","internalType":"bytes32"}],"stateMutability":"view"},{"type":"function","name":"allowance","inputs":[{"name":"owner","type":"address","internalType":"address"},{"name":"spender","type":"address","internalType":"address"}],"outputs":[{"name":"","type":"uint256","internalType":"uint256"}],"stateMutability":"view"},{"type":"function","name":"approve","inputs":[{"name":"spender","type":"address","internalType":"address"},{"name":"value","type":"uint256","internalType":"uint256"}],"outputs":[{"name":"","type":"bool","internalType":"bool"}],"stateMutability":"nonpayable"},{"type":"function","name":"balanceOf","inputs":[{"name":"account","type":"address","internalType":"address"}],"outputs":[{"name":"","type":"uint256","internalType":"uint256"}],"stateMutability":"view"},{"type":"function","name":"convertToAssets","inputs":[{"name":"shares","type":"uint256","internalType":"uint256"}],"outputs":[{"name":"","type":"uint256","internalType":"uint256"}],"stateMutability":"view"},{"type":"function","name":"convertToShares","inputs":[{"name":"assets","type":"uint256","internalType":"uint256"}],"outputs":[{"name":"","type":"uint256","internalType":"uint256"}],"stateMutability":"view"},{"type":"function","name":"coverPayout","inputs":[{"name":"to","type":"address","internalType":"address"},{"name":"amount","type":"uint256","internalType":"uint256"}],"outputs":[],"stateMutability":"nonpayable"},{"type":"function","name":"decimals","inputs":[],"outputs":[{"name":"","type":"uint8","internalType":"uint8"}],"stateMutability":"view"},{"type":"function","name":"deposit","inputs":[{"name":"assets","type":"uint256","internalType":"uint256"}],"outputs":[{"name":"shares","type":"uint256","internalType":"uint256"}],"stateMutability":"nonpayable"},{"type":"function","name":"getRoleAdmin","inputs":[{"name":"role","type":"bytes32","internalType":"bytes32"}],"outputs":[{"name":"","type":"bytes32","internalType":"bytes32"}],"stateMutability":"view"},{"type":"function","name":"grantRole","inputs":[{"name":"role","type":"bytes32","internalType":"bytes32"},{"name":"account","type":"address","internalType":"address"}],"outputs":[],"stateMutability":"nonpayable"},{"type":"function","name":"grantSettler","inputs":[{"name":"settler","type":"address","internalType":"address"}],"outputs":[],"stateMutability":"nonpayable"},{"type":"function","name":"hasRole","inputs":[{"name":"role","type":"bytes32","internalType":"bytes32"},{"name":"account","type":"address","internalType":"address"}],"outputs":[{"name":"","type":"bool","internalType":"bool"}],"stateMutability":"view"},{"type":"function","name":"name","inputs":[],"outputs":[{"name":"","type":"string","internalType":"string"}],"stateMutability":"view"},{"type":"function","name":"receiveFromSettlement","inputs":[{"name":"amount","type":"uint256","internalType":"uint256"}],"outputs":[],"stateMutability":"nonpayable"},{"type":"function","name":"renounceRole","inputs":[{"name":"role","type":"bytes32","internalType":"bytes32"},{"name":"callerConfirmation","type":"address","internalType":"address"}],"outputs":[],"stateMutability":"nonpayable"},{"type":"function","name":"revokeRole","inputs":[{"name":"role","type":"bytes32","internalType":"bytes32"},{"name":"account","type":"address","internalType":"address"}],"outputs":[],"stateMutability":"nonpayable"},{"type":"function","name":"revokeSettler","inputs":[{"name":"settler","type":"address","internalType":"address"}],"outputs":[],"stateMutability":"nonpayable"},{"type":"function","name":"supportsInterface","inputs":[{"name":"interfaceId","type":"bytes4","internalType":"bytes4"}],"outputs":[{"name":"","type":"bool","internalType":"bool"}],"stateMutability":"view"},{"type":"function","name":"symbol","inputs":[],"outputs":[{"name":"","type":"string","internalType":"string"}],"stateMutability":"view"},{"type":"function","name":"totalAssets","inputs":[],"outputs":[{"name":"","type":"uint256","internalType":"uint256"}],"stateMutability":"view"},{"type":"function","name":"totalSupply","inputs":[],"outputs":[{"name":"","type":"uint256","internalType":"uint256"}],"stateMutability":"view"},{"type":"function","name":"transfer","inputs":[{"name":"to","type":"address","internalType":"address"},{"name":"value","type":"uint256","internalType":"uint256"}],"outputs":[{"name":"","type":"bool","internalType":"bool"}],"stateMutability":"nonpayable"},{"type":"function","name":"transferFrom","inputs":[{"name":"from","type":"address","internalType":"address"},{"name":"to","type":"address","internalType":"address"},{"name":"value","type":"uint256","internalType":"uint256"}],"outputs":[{"name":"","type":"bool","internalType":"bool"}],"stateMutability":"nonpayable"},{"type":"function","name":"usdc","inputs":[],"outputs":[{"name":"","type":"address","internalType":"contract IERC20"}],"stateMutability":"view"},{"type":"function","name":"withdraw","inputs":[{"name":"shares","type":"uint256","internalType":"uint256"}],"outputs":[{"name":"assets","type":"uint256","internalType":"uint256"}],"stateMutability":"nonpayable"},{"type":"event","name":"Approval","inputs":[{"name":"owner","type":"address","indexed":true,"internalType":"address"},{"name":"spender","type":"address","indexed":true,"internalType":"address"},{"name":"value","type":"uint256","indexed":false,"internalType":"uint256"}],"anonymous":false},{"type":"event","name":"Deposited","inputs":[{"name":"user","type":"address","indexed":true,"internalType":"address"},{"name":"assets","type":"uint256","indexed":false,"internalType":"uint256"},{"name":"shares","type":"uint256","indexed":false,"internalType":"uint256"}],"anonymous":false},{"type":"event","name":"PaidOut","inputs":[{"name":"to","type":"address","indexed":true,"internalType":"address"},{"name":"amount","type":"uint256","indexed":false,"internalType":"uint256"}],"anonymous":false},{"type":"event","name":"RoleAdminChanged","inputs":[{"name":"role","type":"bytes32","indexed":true,"internalType":"bytes32"},{"name":"previousAdminRole","type":"bytes32","indexed":true,"internalType":"bytes32"},{"name":"newAdminRole","type":"bytes32","indexed":true,"internalType":"bytes32"}],"anonymous":false},{"type":"event","name":"RoleGranted","inputs":[{"name":"role","type":"bytes32","indexed":true,"internalType":"bytes32"},{"name":"account","type":"address","indexed":true,"internalType":"address"},{"name":"sender","type":"address","indexed":true,"internalType":"address"}],"anonymous":false},{"type":"event","name":"RoleRevoked","inputs":[{"name":"role","type":"bytes32","indexed":true,"internalType":"bytes32"},{"name":"account","type":"address","indexed":true,"internalType":"address"},{"name":"sender","type":"address","indexed":true,"internalType":"address"}],"anonymous":false},{"type":"event","name":"SettlementReceived","inputs":[{"name":"amount","type":"uint256","indexed":false,"internalType":"uint256"}],"anonymous":false},{"type":"event","name":"Transfer","inputs":[{"name":"from","type":"address","indexed":true,"internalType":"address"},{"name":"to","type":"address","indexed":true,"internalType":"address"},{"name":"value","type":"uint256","indexed":false,"internalType":"uint256"}],"anonymous":false},{"type":"event","name":"Withdrawn","inputs":[{"name":"user","type":"address","indexed":true,"internalType":"address"},{"name":"assets","type":"uint256","indexed":false,"internalType":"uint256"},{"name":"shares","type":"uint256","indexed":false,"internalType":"uint256"}],"anonymous":false},{"type":"error","name":"AccessControlBadConfirmation","inputs":[]},{"type":"error","name":"AccessControlUnauthorizedAccount","inputs":[{"name":"account","type":"address","internalType":"address"},{"name":"neededRole","type":"bytes32","internalType":"bytes32"}]},{"type":"error","name":"ERC20InsufficientAllowance","inputs":[{"name":"spender","type":"address","internalType":"address"},{"name":"allowance","type":"uint256","internalType":"uint256"},{"name":"needed","type":"uint256","internalType":"uint256"}]},{"type":"error","name":"ERC20InsufficientBalance","inputs":[{"name":"sender","type":"address","internalType":"address"},{"name":"balance","type":"uint256","internalType":"uint256"},{"name":"needed","type":"uint256","internalType":"uint256"}]},{"type":"error","name":"ERC20InvalidApprover","inputs":[{"name":"approver","type":"address","internalType":"address"}]},{"type":"error","name":"ERC20InvalidReceiver","inputs":[{"name":"receiver","type":"address","internalType":"address"}]},{"type":"error","name":"ERC20InvalidSender","inputs":[{"name":"sender","type":"address","internalType":"address"}]},{"type":"error","name":"ERC20InvalidSpender","inputs":[{"name":"spender","type":"address","internalType":"address"}]},{"type":"error","name":"ReentrancyGuardReentrantCall","inputs":[]},{"type":"error","name":"SafeERC20FailedOperation","inputs":[{"name":"token","type":"address","internalType":"address"}]}],"bytecode":{"object":"0x60a034620003d457601f19906001600160401b0390601f9062001a62388190038381018616830185811184821017620002d857839282916040528339602092839181010312620003d457516001600160a01b0381169390849003620003d45762000068620003d9565b906012825271546574687261205661756c7420536861726560701b8383015262000091620003d9565b936003908186526254565360e81b858701528351838111620002d85782546001958682811c92168015620003c9575b88831014620003b35781848493116200035d575b508790848311600114620002fa57600092620002ee575b505060001982851b1c191690851b1782555b8551928311620002d85760049586548581811c91168015620002cd575b87821014620002b8578281116200026d575b5085918411600114620002055783949596979850600093620001f9575b505082841b92600019911b1c19161783555b6006558215620001b657826080526200017433620003f9565b5062000180336200047a565b5060405161152490816200051e82396080518181816102840152818161065f015281816107bf01528181610bef01526112640152f35b60405162461bcd60e51b815291820152601760248201527f5661756c74506f6f6c3a20696e76616c69642055534443000000000000000000604482015260649150fd5b01519150388062000149565b91909783169786600052856000209260005b8a811062000257575084869798999a106200023c575b50505050811b0183556200015b565b01519060f884600019921b161c19169055388080806200022d565b8183015185559386019391870191870162000217565b87600052866000208380870160051c820192898810620002ae575b0160051c019086905b828110620002a15750506200012c565b6000815501869062000291565b9250819262000288565b602288634e487b7160e01b6000525260246000fd5b90607f16906200011a565b634e487b7160e01b600052604160045260246000fd5b015190503880620000eb565b908b8894169186600052896000209260005b8b8282106200034657505084116200032d575b505050811b018255620000fd565b015160001983871b60f8161c191690553880806200031f565b8385015186558b979095019493840193016200030c565b90915084600052876000208480850160051c8201928a8610620003a9575b918991869594930160051c01915b82811062000399575050620000d4565b6000815585945089910162000389565b925081926200037b565b634e487b7160e01b600052602260045260246000fd5b91607f1691620000c0565b600080fd5b60408051919082016001600160401b03811183821017620002d857604052565b6001600160a01b031660008181527f05b8ccbb9d4d8fb16ea74ce3c29a41f1b461fbdaff4714a0d9a8eb05499746bc602052604081205490919060ff16620004765781805260056020526040822081835260205260408220600160ff19825416179055339160008051602062001a428339815191528180a4600190565b5090565b6001600160a01b031660008181527feb156ff3a5e27ee7d7eabb939ee90e26cf80516380c931e148bb153147c7578260205260408120549091907f6666bf5bfee463d10a7fc50448047f8a53b7762d7e28fbc5c643182785f3fd3f9060ff16620005185780835260056020526040832082845260205260408320600160ff1982541617905560008051602062001a42833981519152339380a4600190565b50509056fe6040608081526004908136101561001557600080fd5b600091823560e01c90816301e1d11414610da757816301ffc9a714610d5157816302fdabe914610b9d57816306fdde0314610aa857816307a2d13a14610a88578163095ea7b3146109de57816318160ddd146109bf57816323b872dd146108cb578163248a9ca3146108a05781632e1a7d4d1461071a5781632f2ff15d146106f0578163313ce567146106d457816336568abe1461068e5781633e413bee1461064a5781635f4e3e961461062057816370a08231146105e95781637445e85c146105c057816391d148541461057957816395d89b4114610476578163a217fddf1461045b578163a4cd1a4214610431578163a9059cbb14610400578163ad371597146103ab578163b6b55f2514610205578163c6e6f592146101db578163d547741f14610197575063dd62ed3e1461014c57600080fd5b3461019357806003193601126101935780602092610168610dc4565b610170610ddf565b6001600160a01b0391821683526001865283832091168252845220549051908152f35b5080fd5b919050346101d757806003193601126101d7576101d391356101ce60016101bc610ddf565b93838752600560205286200154610ee0565b6110bc565b5080f35b8280fd5b82843461020257602036600319011261020257506101fb60209235611323565b9051908152f35b80fd5b919050346101d7576020928360031936011261020257823590610226611414565b811561036f5761023582611323565b93610241851515611373565b83516323b872dd60e01b878201523360248201523060448201526064808201859052815260a0810167ffffffffffffffff81118282101761035c5785526102a8907f00000000000000000000000000000000000000000000000000000000000000006113b8565b3315610347576002549085820180921161033457506002553381528085528281208481540190558251908482527fddf252ad1be2c89b69c2b068fc378daa952ba7f163c4a11628f55a4df523b3ef863393a3815190815282848201527f73a19dd210f1a7f902193214c0ee91dd35ee5b4d920cba8d519eca65a7b488ca823392a2600160065551908152f35b634e487b7160e01b835260119052602482fd5b60249184519163ec442f0560e01b8352820152fd5b634e487b7160e01b845260418352602484fd5b825162461bcd60e51b815280850186905260166024820152755661756c74506f6f6c3a207a65726f2061737365747360501b6044820152606490fd5b9050346101d75760203660031901126101d7577f8a92d411665ba2871660087c41aa031d8328805f31550763ecee1791ac6e377a9160209135906103ed610e3e565b6103f8821515611489565b51908152a180f35b50503461019357806003193601126101935760209061042a610420610dc4565b602435903361116b565b5160018152f35b8334610202576020366003190112610202576101d361044e610dc4565b610456610ea6565b611022565b50503461019357816003193601126101935751908152602090f35b838334610193578160031936011261019357805191809380549160019083821c9282851694851561056f575b602095868610811461055c5785895290811561053857506001146104e0575b6104dc87876104d2828c0383611133565b5191829182610df5565b0390f35b81529295507f8a35acfbc15ff81a39ae7d344fd709f28e8600b4aa8c65c6b64bfe7fe36bd19b5b82841061052557505050826104dc946104d2928201019486806104c1565b8054868501880152928601928101610507565b60ff19168887015250505050151560051b83010192506104d2826104dc86806104c1565b634e487b7160e01b845260228352602484fd5b93607f16936104a2565b9050346101d757816003193601126101d7578160209360ff9261059a610ddf565b90358252600586528282206001600160a01b039091168252855220549151911615158152f35b505034610193578160031936011261019357602090516000805160206114cf8339815191528152f35b5050346101935760203660031901126101935760209181906001600160a01b03610611610dc4565b16815280845220549051908152f35b8334610202576020366003190112610202576101d361063d610dc4565b610645610ea6565b610f06565b505034610193578160031936011261019357517f00000000000000000000000000000000000000000000000000000000000000006001600160a01b03168152602090f35b8383346101935780600319360112610193576106a8610ddf565b90336001600160a01b038316036106c557506101d39192356110bc565b5163334bd91960e11b81528390fd5b5050346101935781600319360112610193576020905160128152f35b919050346101d757806003193601126101d7576101d3913561071560016101bc610ddf565b610fa7565b919050346101d757602092836003193601126102025782359061073b611414565b610746821515611373565b33815280855281838220541061085d5761075f8261134d565b93331561084857338252818652838220549083821061081d575082903383528287520383822055816002540360025582518281527fddf252ad1be2c89b69c2b068fc378daa952ba7f163c4a11628f55a4df523b3ef863392a36107e383337f0000000000000000000000000000000000000000000000000000000000000000611437565b815190838252848201527f92ccf450a286a957af52509bc1c9939d1a6a481783e142e41e2499f0bb66ebc6823392a2600160065551908152f35b845163391434e360e21b81523391810191825260208201929092526040810184905281906060010390fd5b602491845191634b637e8f60e11b8352820152fd5b825162461bcd60e51b8152808501869052601e60248201527f5661756c74506f6f6c3a20696e73756666696369656e742073686172657300006044820152606490fd5b9050346101d75760203660031901126101d75781602093600192358152600585522001549051908152f35b90508234610202576060366003190112610202576108e7610dc4565b6108ef610ddf565b916044359360018060a01b03831680835260016020528683203384526020528683205491600019831061092b575b60208861042a89898961116b565b86831061099357811561097c5733156109655750825260016020908152868320338452815291869020908590039055829061042a8761091d565b8751634a1406b160e11b8152908101849052602490fd5b875163e602df0560e01b8152908101849052602490fd5b8751637dc7a0d960e11b8152339181019182526020820193909352604081018790528291506060010390fd5b5050346101935781600319360112610193576020906002549051908152f35b9050346101d757816003193601126101d7576109f8610dc4565b602435903315610a71576001600160a01b0316918215610a5a57508083602095338152600187528181208582528752205582519081527f8c5be1e5ebec7d5bd14f71427d1e84f3dd0314c0f7b2291e5b200ac8c7c3b925843392a35160018152f35b8351634a1406b160e11b8152908101859052602490fd5b835163e602df0560e01b8152808401869052602490fd5b82843461020257602036600319011261020257506101fb6020923561134d565b919050346101d757826003193601126101d757805191836003549060019082821c928281168015610b93575b6020958686108214610b805750848852908115610b5e5750600114610b05575b6104dc86866104d2828b0383611133565b929550600383527fc2575a0e9e593c00f959f8c92f12db2869c3395a3b0502d05e2516446f71f85b5b828410610b4b57505050826104dc946104d2928201019438610af4565b8054868501880152928601928101610b2e565b60ff191687860152505050151560051b83010192506104d2826104dc38610af4565b634e487b7160e01b845260229052602483fd5b93607f1693610ad4565b919050346101d757806003193601126101d757610bb8610dc4565b9060243590610bc5610e3e565b610bcd611414565b6001600160a01b03838116949093908515610d0e57610bed841515611489565b7f000000000000000000000000000000000000000000000000000000000000000090835180966370a0823160e01b825230838301528160246020998a9387165afa908115610d04579086918a91610ccf575b5010610c825750837f85614384dd52aa71c3b02d6986abe55274cb38b9b13fc323db17de1b950c272795949392610c7592611437565b51908152a2600160065580f35b835162461bcd60e51b8152908101869052602160248201527f5661756c74506f6f6c3a20696e73756666696369656e74206c697175696469746044820152607960f81b6064820152608490fd5b809250888092503d8311610cfd575b610ce88183611133565b81010312610cf95785905138610c3f565b8880fd5b503d610cde565b85513d8b823e3d90fd5b606490602084519162461bcd60e51b8352820152601b60248201527f5661756c74506f6f6c3a20696e76616c696420726563656976657200000000006044820152fd5b9050346101d75760203660031901126101d757359063ffffffff60e01b82168092036101d75760209250637965db0b60e01b8214918215610d96575b50519015158152f35b6301ffc9a760e01b14915038610d8d565b5050346101935781600319360112610193576020906101fb611249565b600435906001600160a01b0382168203610dda57565b600080fd5b602435906001600160a01b0382168203610dda57565b6020808252825181830181905290939260005b828110610e2a57505060409293506000838284010152601f8019910116010190565b818101860151848201604001528501610e08565b3360009081527feb156ff3a5e27ee7d7eabb939ee90e26cf80516380c931e148bb153147c7578260205260409020546000805160206114cf8339815191529060ff1615610e885750565b6044906040519063e2517d3f60e01b82523360048301526024820152fd5b3360009081527f05b8ccbb9d4d8fb16ea74ce3c29a41f1b461fbdaff4714a0d9a8eb05499746bc602052604081205460ff1615610e885750565b80600052600560205260406000203360005260205260ff6040600020541615610e885750565b6001600160a01b031660008181527feb156ff3a5e27ee7d7eabb939ee90e26cf80516380c931e148bb153147c7578260205260408120549091906000805160206114cf8339815191529060ff16610fa25780835260056020526040832082845260205260408320600160ff198254161790557f2f8788117e7eff1d82e926ec794901d17c78024a50270940304540a733656f0d339380a4600190565b505090565b906000918083526005602052604083209160018060a01b03169182845260205260ff60408420541615600014610fa25780835260056020526040832082845260205260408320600160ff198254161790557f2f8788117e7eff1d82e926ec794901d17c78024a50270940304540a733656f0d339380a4600190565b6001600160a01b031660008181527feb156ff3a5e27ee7d7eabb939ee90e26cf80516380c931e148bb153147c7578260205260408120549091906000805160206114cf8339815191529060ff1615610fa2578083526005602052604083208284526020526040832060ff1981541690557ff6391f5c32d9c69d2a47ea670b442974b53935d1edc7fd64eb21e047a839171b339380a4600190565b906000918083526005602052604083209160018060a01b03169182845260205260ff604084205416600014610fa2578083526005602052604083208284526020526040832060ff1981541690557ff6391f5c32d9c69d2a47ea670b442974b53935d1edc7fd64eb21e047a839171b339380a4600190565b90601f8019910116810190811067ffffffffffffffff82111761115557604052565b634e487b7160e01b600052604160045260246000fd5b916001600160a01b03808416928315611230571692831561121757600090838252816020526040822054908382106111e5575091604082827fddf252ad1be2c89b69c2b068fc378daa952ba7f163c4a11628f55a4df523b3ef958760209652828652038282205586815220818154019055604051908152a3565b60405163391434e360e21b81526001600160a01b03919091166004820152602481019190915260448101839052606490fd5b60405163ec442f0560e01b815260006004820152602490fd5b604051634b637e8f60e11b815260006004820152602490fd5b6040516370a0823160e01b81523060048201526020816024817f00000000000000000000000000000000000000000000000000000000000000006001600160a01b03165afa9081156112ce576000916112a0575090565b906020823d82116112c6575b816112b960209383611133565b8101031261020257505190565b3d91506112ac565b6040513d6000823e3d90fd5b818102929181159184041417156112ed57565b634e487b7160e01b600052601160045260246000fd5b811561130d570490565b634e487b7160e01b600052601260045260246000fd5b6002548061132f575090565b61133c9061134a926112da565b611344611249565b90611303565b90565b60025480611359575090565b61136e61134a92611368611249565b906112da565b611303565b1561137a57565b60405162461bcd60e51b81526020600482015260166024820152755661756c74506f6f6c3a207a65726f2073686172657360501b6044820152606490fd5b906000602091828151910182855af1156112ce576000513d61140b57506001600160a01b0381163b155b6113e95750565b604051635274afe760e01b81526001600160a01b039091166004820152602490fd5b600114156113e2565b600260065414611425576002600655565b604051633ee5aeb560e01b8152600490fd5b60405163a9059cbb60e01b60208201526001600160a01b039092166024830152604480830193909352918152608081019167ffffffffffffffff83118284101761115557611487926040526113b8565b565b1561149057565b60405162461bcd60e51b815260206004820152601660248201527515985d5b1d141bdbdb0e881e995c9bc8185b5bdd5b9d60521b6044820152606490fdfe6666bf5bfee463d10a7fc50448047f8a53b7762d7e28fbc5c643182785f3fd3fa26469706673582212208070242bdc4536b909a295bf164a8584d3ed52ac9adff617cbf24253a0423fe364736f6c634300081400332f8788117e7eff1d82e926ec794901d17c78024a50270940304540a733656f0d","linkReferences":{}},"methodIdentifiers":{"DEFAULT_ADMIN_ROLE()":"a217fddf","SETTLER_ROLE()":"7445e85c","allowance(address,address)":"dd62ed3e","approve(address,uint256)":"095ea7b3","balanceOf(address)":"70a08231","convertToAssets(uint256)":"07a2d13a","convertToShares(uint256)":"c6e6f592","coverPayout(address,uint256)":"02fdabe9","decimals()":"313ce567","deposit(uint256)":"b6b55f25","getRoleAdmin(bytes32)":"248a9ca3","grantRole(bytes32,address)":"2f2ff15d","grantSettler(address)":"5f4e3e96","hasRole(bytes32,address)":"91d14854","name()":"06fdde03","receiveFromSettlement(uint256)":"ad371597","renounceRole(bytes32,address)":"36568abe","revokeRole(bytes32,address)":"d547741f","revokeSettler(address)":"a4cd1a42","supportsInterface(bytes4)":"01ffc9a7","symbol()":"95d89b41","totalAssets()":"01e1d114","totalSupply()":"18160ddd","transfer(address,uint256)":"a9059cbb","transferFrom(address,address,uint256)":"23b872dd","usdc()":"3e413bee","withdraw(uint256)":"2e1a7d4d"},"id":49}